:100000000C9434000C9451000C9451000C94510049
:100010000C9451000C9451000C9451000C9451001C
:100020000C9451000C9451000C9451000C9451000C
:100030000C9451000C9451000C9451000C945100FC
:100040000C9451000C9451000C9451000C945100EC
:100050000C9451000C9451000C9451000C945100DC
:100060000C9451000C94510011241FBECFEFD8E026
:10007000DEBFCDBF11E0A0E0B1E0E2E7F7E002C0F3
:1000800005900D92A83DB107D9F721E0A8EDB1E0A8
:1000900001C01D92A63EB207E1F70E9463030C94D3
:1000A000B7030C9400008091D9019091DA01892B5B
:1000B00099F01092D9011092DA018091DB019091B0
:1000C000DC0141E062E0892B21F086E191E00C94B3
:1000D000C70286E291E0FBCF089534991AC02FEF52
:1000E00089EF90E0215080409040E1F700C000008F
:1000F00034990FC08091D8010E943203349BFECF07
:100100002FEF89EF90E0215080409040E1F700C050
:1001100000000895339920C02FEF89EF90E021501F
:1001200080409040E1F700C00000339915C08091F5
:10013000DD019091DE0121E082278093DD01909323
:10014000DE01339BFECF8FEF99EF20E0815090408E
:100150002040E1F700C000000895329925C02FEF3C
:1001600089EF90E0215080409040E1F700C000000E
:1001700032991AC08091DB019091DC0121E0822745
:100180008093DB019093DC0181E08093D901109290
:10019000DA01329BFECF8FEF99EF20E08150904043
:1001A0002040E1F700C000000895319926C02FEFEC
:1001B00089EF90E0215080409040E1F700C00000BE
:1001C00031991BC08091DB019091DC01892BB1F04A
:1001D00041E061E087E391E00E94C7028091040161
:1001E0000E943203319BFECF2FEF89EF90E0215028
:1001F00080409040E1F700C0000008958091000128
:100200000E94320341E061E087E491E00E94C7026E
:10021000E9CF309926C02FEF89EF90E02150804040
:100220009040E1F700C0000030991BC08091DB01D5
:100230009091DC01892BB1F0809103010E9432037F
:1002400041E061E087E591E00E94C702309BFECF6C
:100250002FEF89EF90E0215080409040E1F700C0FF
:1002600000000895809107010E94320341E061E09F
:1002700087E691E0E9CF1A9926C02FEF89EF90E049
:10028000215080409040E1F700C000001A991BC047
:100290008091DB019091DC01892BB1F0809102010A
:1002A0000E94320341E061E087E791E00E94C702CB
:1002B0001A9BFECF2FEF89EF90E0215080409040B5
:1002C000E1F700C000000895809106010E9432030A
:1002D00041E061E087E891E0E9CF199926C02FEF6E
:1002E00089EF90E0215080409040E1F700C000008D
:1002F00019991BC08091DB019091DC01892BB1F031
:10030000809101010E94320341E061E087E991E0C0
:100310000E94C702199BFECF2FEF89EF90E021507A
:1003200080409040E1F700C00000089580910501F1
:100330000E94320341E061E087EA91E0E9CF86B1B3
:1003400080958F7090E0892B31F483B18095867011
:1003500090E0892B71F00E946D000E948A000E943B
:10036000AD000E94D5000E9409010E943B010C943F
:100370006D010895209A8AB18C6F8AB987B1807E09
:1003800087B988B18F6188B984B1897F84B985B113
:10039000866085B9089588E091E08093E2019093AA
:1003A000E301519A50981092C50080E18093C400F7
:1003B000E1ECF0E0808188608083808180618083CF
:1003C00086E08093C200E0EC8081826080830895A3
:1003D0009091C00095FFFCCF8093C6000895CF9305
:1003E000DF930F92CDB7DEB789838A3019F48DE0A1
:1003F0000E94E80189810E94E80180E090E00F906E
:10040000DF91CF9108958091C00087FFFCCF80914C
:10041000C60008958091C00087FB882780F9089561
:10042000CF93DF93EC018881811103C0DF91CF91DD
:10043000089521960E94E801F6CFEF92FF920F9364
:100440001F93CF93DF9300D00F92CDB7DEB78C010F
:100450001A821B82615071097B010E940302898309
:100460000E94E80199819A3071F4F80110828A8122
:100470009B810F900F900F90DF91CF911F910F9163
:10048000FF90EF900895F981FD3079F3F8018981AB
:1004900081938F01EA81FB813196EA83FB83EE161B
:1004A000FF06D9F6E2CF5C9A85ED8A95F1F7000058
:1004B0005C980895CF93C82F87FF1FC0289AC6FF66
:1004C0001EC05F9AC5FF1DC05E9AC4FF1CC05D9A26
:1004D0000E94530285ED8A95F1F70000C3FF15C015
:1004E000289AC2FF14C05F9AC1FF13C05E9AC0FF72
:1004F00012C05D9ACF910C9453022898E0CF5F9878
:10050000E1CF5E98E2CF5D98E3CF2898EACF5F987D
:10051000EBCF5E98ECCF5D98EDCF5A9A0E945A02CD
:100520008FE39FE10197F1F700C0000008955A980A
:100530000E945A028FE19EE40197F1F700C000008B
:1005400008955C982FEF89EF90E021508040904013
:10055000E1F700C0000083E30E94970283E30E945A
:10056000970282E30E94970288E20E9497028CE041
:100570000E94970281E00E9497022FEF89EF90E09E
:10058000215080409040E1F700C0000008950F9393
:100590001F93CF93DF9300D000D0CDB7DEB78C830D
:1005A0009A83498380EC623009F080E80E949702C8
:1005B0008FE19EE40197F1F700C000000C811A81E1
:1005C0001A821B82F801808181110CC0F981F1111E
:1005D0001BC00F900F900F900F90DF91CF911F9144
:1005E0000F9108950F5F1F4F0E948D02EA81FB81DA
:1005F0003196EA83FB83E6CF80E20E948D028A81F6
:100600009B8101968A839B83EA81FB817097A4F387
:10061000E0CF5B98A0EBB0E01C92E1EBF0E0108241
:100620001092B2008C9183608C938081886080836B
:1006300080818260808383E38093B30081E1809333
:10064000B4000895E0EBF0E080818F7E80838081AC
:10065000806280830895E0EBF0E080818F7C80836E
:100660005B980895CF93DF93D82F0E942B0380EAE5
:1006700091E00197F1F700C0C8E0D0FF14C00E94DC
:100680002B03D69580EA91E00197F1F700C0C150A5
:10069000A1F70E94220380EA91E00197F1F700C0E0
:1006A000DF91CF9108950E942203EBCFCF93DF9388
:1006B000EC018881811103C0DF91CF9108952196CB
:1006C0000E943203F6CF0E94CB010E94BA010E9421
:1006D000A1020E9409030E9422032FEF89E698E1FC
:1006E000215080409040E1F700C0000087EB91E08E
:1006F0000E948B0341E061E082ED91E00E94C7021D
:1007000041E062E086E291E00E94C7020E949F0100
:100710000E945300FBCF0F931F93CF93DF93E09181
:10072000E201F091E3012381EC0100E010E021FD02
:100730000EC00FEF1FEFC801DF91CF911F910F91F6
:10074000089521960995892B11F00FEF1FEF8881ED
:100750006091E2017091E301DB011896ED91FD914A
:100760008111EFCF8AE00995892B29F3E2CFF89424
:02077000FFCFB9
:1007720005040302018281800000000200000000E3
:10078200EF010000000053545020464F52204243D4
:100792004B204C20520053545020313830205031DD
:1007A20020503220503300427574746F6E205465AD
:1007B200737420332E3100427574746F6E20546549
:1007C200737420332E3000427574746F6E2054653A
:1007D200737420342E3100427574746F6E20546528
:1007E200737420342E3000427574746F6E20546519
:1007F200737420352E3100427574746F6E20546507
:10080200737420352E3000427574746F6E205465F7
:10081200737420362E3100427574746F6E205465E5
:10082200737420362E300041544D6567613332387F
:100832005020342D626974204C43442074657374D3
:080842002E00496E74726F0074
:00000001FF
