:020000040800F2
:1000000000200020B9000008710B0008850B0008D3
:1000100000000000000000000000000000000000E0
:10002000000000000000000000000000710B00084C
:100030000000000000000000710B0008710B0008B8
:10004000710B0008710B0008710B0008710B0008A0
:10005000710B0008710B0008710B0008710B000890
:1000600000000000710B0008710B0008710B000804
:10007000710B0008710B0008000000002503000848
:1000800000000000710B00080000000000000000EC
:10009000710B000800000000710B0008710B0008D4
:1000A000710B0008710B0008710B0008FD0D0008B2
:1000B000710B0008710B000800F0D6FC00F098FCF2
:1000C000E1235B02180000F0F1FD62B6C04600F0CB
:1000D00034F8024B180000F059FFFEE7586A000898
:1000E00080B500AF0A4B0B4A5A60094B00229A6058
:1000F000074B05221A60C046054B1A6880235B0235
:100100001340F9D0024B00221A60C046BD4680BDA4
:1001100010E000E0FF7C000080B582B000AF7860A6
:1001200001E0FFF7DDFF7B685A1E7A60002BF8D1F3
:10013000C046C046BD4602B080BD80B500AF00F0ED
:1001400030FC00F08DFB00F045F800F0D9F9084BC9
:100150001B78002B07D1074B1B78074A11001800AA
:1001600000F024FBF3E7002000F050FBEFE7C0466F
:10017000D001002000000020D101002080B582B015
:1001800000AF0200FB1D1A70BB1D0A1C1A70FB1D7C
:100190001B78002B0BD0FB1D1B78032B07D8BB1D36
:1001A0001B78002B03D0BB1D1B78082B01D9032320
:1001B00009E0FB1D1B785A1EBB1D1B78013B04493F
:1001C000D2008A18D35C1800BD4602B080BDC0467C
:1001D000406A000880B500AF484BDA6A474B0121FE
:1001E0000A43DA62A023DB051B689B009A08A02360
:1001F000DB058021C9050A431A60A023DB055A6884
:10020000A023DB053E490A405A60A023DB051B689A
:100210003C4A1A40A023DB05802149050A431A60A5
:10022000A023DB055A68A023DB0537490A405A6042
:10023000A023DB051B68354A1A40A023DB0580217B
:10024000C9040A431A60A023DB055A68A023DB0512
:100250002F490A405A60A023DB051B682D4A1A402B
:10026000A023DB05802149020A431A60A023DB0595
:100270005A68A023DB0528490A405A60A023DB0501
:100280005A69A023DB0525490A405A611B4B9A6B2A
:100290001A4B01210A439A638023DB054022FF3277
:1002A000DA621F4B1A681E4B802109020A431A604A
:1002B0008023DB051A688023DB0510210A431A60BE
:1002C0008023DB051A688023DB0580210A431A603E
:1002D0008023DB05DA688023DB0501210A43DA602D
:1002E0008023DB051A688023DB0501210A431A609D
:1002F00062B6C046C046BD4680BDC0460010024042
:10030000FF7FFFFFFFFFFFCFFFBFFFFFFFFFFFF3F9
:10031000FFDFFFFFFFFFFCFFFFFEFFFFFF06FFFF0A
:1003200000E100E080B500AF8023DB051A6980237F
:10033000DB0501218A431A61684B1B78DBB201336C
:10034000DAB2664B1A70654B1B78DBB2632B02D9AD
:10035000624B00221A70624B1B78DBB2012B22D158
:100360005E4B1B78DAB25F4B1B78DBB29A4209D244
:10037000A023DB055A69A023DB05802109020A437B
:100380005A6107E0A023DB055A69A023DB05564923
:100390000A405A61A023DB055A69A023DB055349B3
:1003A0000A405A6137E04E4B1B78DBB2022B22D158
:1003B000A023DB055A69A023DB054B490A405A619B
:1003C000464B1B78DAB2474B1B78DBB29A4209D214
:1003D000A023DB055A69A023DB058021C9010A435C
:1003E0005A6118E0A023DB055A69A023DB053F49C9
:1003F0000A405A610FE0A023DB055A69A023DB0500
:1004000039490A405A61A023DB055A69A023DB055C
:1004100036490A405A61364B1B78DBB2012B22D198
:100420002E4B1B78DAB2334B1B78DBB29A4209D2DF
:10043000A023DB055A69A023DB05802189010A433B
:100440005A6107E0A023DB055A69A023DB052A498E
:100450000A405A61A023DB055A69A023DB0527491E
:100460000A405A6137E0224B1B78DBB2022B22D1C3
:10047000A023DB055A69A023DB051F490A405A6106
:10048000164B1B78DAB21B4B1B78DBB29A4209D2AF
:10049000A023DB055A69A023DB05802149000A431C
:1004A0005A6118E0A023DB055A69A023DB05134934
:1004B0000A405A610FE0A023DB055A69A023DB053F
:1004C0000D490A405A61A023DB055A69A023DB05C8
:1004D0000A490A405A61C046BD4680BDD401002089
:1004E000D5010020D2010020FF7FFFFFFFBFFFFFEB
:1004F000D6010020D3010020FFDFFFFFFFFEFFFF3A
:1005000080B500AF174B00221A70174B00221A70EB
:10051000164B00221A70164B00221A70A023DB051E
:100520005A69A023DB0513490A405A61A023DB0561
:100530005A69A023DB0510490A405A61A023DB0554
:100540005A69A023DB050D490A405A61A023DB0547
:100550005A69A023DB050A490A405A61C046BD46D4
:1005600080BDC046D5010020D6010020D201002068
:10057000D3010020FF7FFFFFFFBFFFFFFFDFFFFF73
:10058000FFFEFFFF80B582B000AF0200FB1D1A70B6
:10059000084B01221A70084B01221A70074BFA1DF2
:1005A00012781A70064BFA1D12781A70C046BD46B2
:1005B00002B080BDD5010020D6010020D20100206C
:1005C000D301002080B582B000AF0200FB1D1A707D
:1005D000084B02221A70084B02221A70074BFA1DB0
:1005E00012781A70064BFA1D12781A70C046BD4672
:1005F00002B080BDD5010020D6010020D20100202C
:10060000D301002080B582B000AF0200FB1D1A703C
:10061000084B02221A70084B01221A70074BFA1D70
:1006200012781A70064BFA1D12781A70C046BD4631
:1006300002B080BDD5010020D6010020D2010020EB
:10064000D301002080B582B000AF0200FB1D1A70FC
:10065000084B01221A70084B02221A70074BFA1D30
:1006600012781A70064BFA1D12781A70C046BD46F1
:1006700002B080BDD5010020D6010020D2010020AB
:10068000D301002080B582B000AF0200FB1D1A70BC
:10069000BB1D0A1C1A70094B01221A70084B01225B
:1006A0001A70084BFA1D12781A70074BBA1D12788F
:1006B0001A70C046BD4602B080BDC046D5010020BC
:1006C000D6010020D2010020D301002080B582B0E5
:1006D00000AF0200FB1D1A70FB1D1B78022B17D008
:1006E0001FDC002B02D0012B09D01AE00A20FFF7F3
:1006F00049FF96235B001800FFF70EFD14E00A2067
:10070000FFF780FF96235B001800FFF705FD0BE065
:100710000A20FFF797FF96235B001800FFF7FCFC09
:1007200002E0FFF7EDFEC046C046BD4602B080BD08
:1007300080B584B000AF00F019F90300FB6000F051
:100740001EF90300BB60FA68BB68D31A7B607B6844
:10075000023306DB7B68022B03DC0A20FFF712FF63
:100760000BE07B68022B04DD14210A20FFF78AFFCF
:1007700003E00A211420FFF785FFC046BD4604B000
:1007800080BD80B582B000AF00F002F903007B604D
:100790007B68054A934201D9012300E00023180039
:1007A000BD4602B080BDC0460E0E000080B582B0CE
:1007B00000AF02003960FB1D1A70FFF7E2FF031E55
:1007C00019D0114B1B78002B1AD10F4B01221A7034
:1007D0003B681B780133DAB23B681A703B681A78C1
:1007E000FB1D1B7811001800FFF7C8FC0300180060
:1007F000FFF76CFF04E0044B00221A70FFF798FF2C
:10080000C046BD4602B080BDD701002080B582B091
:1008100000AF0200FB1D1A70FB1D1B78042B14D0C7
:1008200017DC032B0DD014DC012B02D0022B04D0DB
:100830000FE00A20FFF7A6FE0EE00A20FFF7C2FE37
:100840000AE00A20FFF7DEFE06E00A20FFF7FAFEC4
:1008500002E0FFF755FEC046C046BD4602B080BD6F
:1008600080B500AF244B5A6B234B802189000A438B
:100870005A63224B1A69214BC02109060A431A61A7
:100880001E4B1A681D4B01210A431A601B4B9A68C4
:100890001A4B01210A439A60184BDA6880231B0225
:1008A000134005D1C046154B1B6801221340FAD0F6
:1008B000124B9B680122134005D0104B9A680F4BD6
:1008C00002210A439A600D4B9A680C4B802109065D
:1008D0000A439A60C046094B1A6880231B011340E3
:1008E000F9D0064B1A68054B802109010A431A60AA
:1008F000C046BD4680BDC0460010024000240140F5
:1009000080B582B000AF7860164BDA68154B802155
:1009100009020A43DA60134B7A689A62114B5A69EA
:10092000104B07210A435A617A6880239B029A423E
:1009300006D10D4B1A680C4B8021C9030A431A607B
:10094000084B9A68074B04210A439A60C046054B3E
:100950001B6804221340FAD0024B1B6C1800BD46E2
:1009600002B080BD002401400827014080B500AFDF
:100970000120FFF7C5FF03001800BD4680BD80B50C
:1009800000AF0220FFF7BCFF03001800BD4680BD8A
:1009900080B500AF1020FFF7B3FF03001800BD467D
:1009A00080BD80B500AF114BDA6A104B01210A43BC
:1009B000DA62A023DB051A68A023DB0503210A43C2
:1009C0001A60A023DB051A68A023DB050C210A436B
:1009D0001A60A023DB051A68A023DB05C02189006B
:1009E0000A431A60C046BD4680BDC04600100240A2
:1009F00080B582B000AF164B7B60164B3B6007E0C2
:100A00007A68131D7B603B68191D396012681A6093
:100A10003A68114B9A42F3D304E03B681A1D3A60DE
:100A200000221A603A680D4B9A42F6D30C4B3B6099
:100A300004E03B681A1D3A601B6898473A68094B06
:100A40009A42F6D3C046C046BD4602B080BDC046FD
:100A5000B46E000800000020D0010020D803002060
:100A6000B46E0008B46E000880B500AF3B4B1A6846
:100A70003A4B01210A431A60C046384B1B680422D6
:100A80001340FAD0354B0122DA60C046334BDB68A5
:100A90000C221340042BF9D1314B1A68304B022140
:100AA0000A431A602E4B1A682D4B01210A431A6023
:100AB0002A4B9A6B294B802149050A439A63294B9B
:100AC000802212011A60C046264B5B681022134038
:100AD000FAD1224BDA68214B23490A40DA601F4BD6
:100AE000DA681E4B8821C9030A43DA601B4A1B4B94
:100AF000D268DA60194A194BD268DA60174A174B84
:100B0000D268DA60154B1A68144B18490A401A600B
:100B1000124B1A68114B802149040A431A60C046DF
:100B20000E4B1A6880239B041340F9D00B4BDA68F4
:100B30000A4B03218A43DA60084BDA68074B03212A
:100B40000A43DA60C046054BDB680C2213400C2BCD
:100B5000F9D1C046C046BD4680BDC0460010024027
:100B60000020024000700040FFFF02FFFFFFFFFE79
:100B700080B500AF024B180000F008FAFEE7C0464F
:100B8000806A000880B500AF024B180000F0FEF943
:100B9000FEE7C046B06A000890B585B000AF786047
:100BA0003960184B1B68002B02D101235B4224E003
:100BB0000023FB600AE0FB685A1CFA603A68D4180C
:100BC000114B180000F0ADF9030023707B68013B66
:100BD0001A00FB68934205D20B4B180000F0CCF9C9
:100BE000031EE8D1FB68002B06D03A68FB68D318D7
:100BF00000221A70FB6800E000231800BD4605B013
:100C000090BDC04670020020D801002080B584B09D
:100C100000AF78603960224B1B68002B02D10123A2
:100C20005B4238E07B683F2B0BDCC0461D4B180055
:100C300000F0A2F903004022D21A7B689A42F5D351
:100C400002E002235B4226E00023FB600BE03A68EF
:100C5000FB68D3181A78134B1100180000F030F914
:100C6000FB680133FB607B68FA689A42EFD30E4B56
:100C70001B68082213400DD10B4B1A680A4B082140
:100C80000A431A60074B180000F04BF903001A00E2
:100C9000054B9A6200231800BD4604B080BDC046D3
:100CA00070020020240200200038014080B584B08A
:100CB00000AF786072B6C046454B00229A64444B40
:100CC0009A6C434B5A64424B5A6C414B1A64414BE9
:100CD00000229A643F4B9A6C3E4B5A643D4B5A6CCF
:100CE0003C4B1A643C4B01221A603C4B00221A60B8
:100CF0003B4BDA6A3A4B01210A43DA62394BFB601B
:100D00007968F86800F070FB0300FB60A023DB0546
:100D10009A68A023DB058021C9020A439A60A023B8
:100D2000DB055A68A023DB052F490A405A60A0233F
:100D3000DB051B682D4A1A40A023DB05802109032F
:100D40000A431A60A023DB055A6AA023DB05402171
:100D50000A435A62A023DB051B68254A1A40A023D8
:100D6000DB05802189030A431A60A023DB055A6A48
:100D7000A023DB058021C9000A435A62184B5A6B35
:100D8000174B8021C9010A435A631A4B1A68194B41
:100D90006C210A431A60174B00225A60154B00223F
:100DA0009A60144BFA68DA60124B1A68114B0121F1
:100DB0000A431A60104B1A680F4B802109050A4339
:100DC0001A6062B6C046C046BD4604B080BDC0468B
:100DD000D8010020240200207002002074020020AC
:100DE000001002400048E801FFFDFFFFFFFFF3FF96
:100DF000FFFFCFFF0038014000E100E080B500AF09
:100E0000084BDB698022134001D000F025F8054B28
:100E1000DB692022134001D000F006F8C046BD4631
:100E200080BDC0460038014080B500AF074B5B6A0B
:100E3000DAB2074B1100180000F042F8031E02D08E
:100E4000044B01221A60C046BD4680BD00380140F7
:100E5000D80100207402002080B500AF164B1800A6
:100E600000F08AF8031E08D0134B180000F059F860
:100E700003001A00114B9A621BE0104B1A680F4BCB
:100E800008218A431A600D4BDB694022134005D0CC
:100E90000A4B1A6A094B40210A431A62074BDB6965
:100EA0008022134005D0054B9A69044B10210A4358
:100EB0009A61C046BD4680BD240200200038014032
:100EC00080B582B000AF78600A00FB1C1A707B68A6
:100ED0001A6C7B685B6C9A4205D17B689B6C002B1B
:100EE00001D0012319E072B6C0467B681B6C591C07
:100EF0007A6811647A68F91C0978D1547B689B6C14
:100F00005A1C7B689A647B681B6C402B02D17B68FF
:100F100000221A6462B6C04600231800BD4602B023
:100F200080BD80B584B000AF78607B689B6C002B7F
:100F300001D100231CE072B6C0467B685B6C591C73
:100F40007A6851640F22BA187968CB5C13707B6899
:100F50005B6C402B02D17B6800225A647B689B6CDF
:100F60005A1E7B689A6462B6C0460F23FB181B7832
:100F70001800BD4604B080BD80B582B000AF786077
:100F80007B689B6C1800BD4602B080BD80B582B006
:100F900000AF78600B4B1B68002B09D101235B422B
:100FA0000BE07B685A1C7A6019000120FFF72EFEC7
:100FB0007B681B78002BF4D100231800BD4602B0DB
:100FC00080BDC0467002002080B582B000AF020034
:100FD000FB1D1A70FB1D19000120FFF717FEC0460C
:100FE000BD4602B080BD80B500AF044B1800FFF7CE
:100FF00098FF03001800BD4680BDC046D801002000
:10100000B0B584B000AF786039601E4B1B68002B10
:1010100002D101235B4231E00023FB600B23FB186C
:1010200000221A7017E0C046174B1800FFF7A4FF04
:10103000031EF9D00B257C19134B1800FFF771FF25
:1010400003002370FB685A1CFA601A007B689B1827
:101050007A1912781A703B68013BFA689A4204DAEE
:101060000B23FB181B780D2BDDD1FB68002B04DD57
:10107000FB687A68D31800221A70FB681800BD4616
:1010800004B0B0BD70020020D801002090B583B03C
:1010900000AFFC1DFFF7A7FF03002370FB1D1B78AB
:1010A0001800FFF791FFFB1D1B781800BD4603B029
:1010B00090BDB0B584B000AF78603960214B1B683B
:1010C000002B02D101235B4237E00023FB600B239E
:1010D000FB1800221A701DE0C0461B4B1800FFF7DA
:1010E0004BFF031EF9D00B257C19174B1800FFF797
:1010F00018FF030023702C003B191B781800FFF722
:1011000063FFFB685A1CFA601A007B689B183A1947
:1011100012781A703B68013BFA689A4204DA0B2392
:10112000FB181B780D2BD7D1FB68002B04DDFB6867
:101130007A68D31800221A70FB681800BD4604B004
:10114000B0BDC04670020020D801002080B582B03A
:1011500000AF7860FEE780B582B000AF7860012311
:101160005B421800BD4602B080BD80B584B000AFC0
:10117000F860B9607A60044B0C221A6001235B426C
:101180001800BD4604B080BD8402002080B500AFC9
:10119000034B0B221A6001235B421800BD4680BD41
:1011A0008402002080B582B000AF786039603B686F
:1011B000802292015A6000231800BD4602B080BD13
:1011C00080B500AF01231800BD4680BD80B582B058
:1011D00000AF78603960044B16221A6001235B422D
:1011E0001800BD4602B080BD8402002080B582B0E8
:1011F00000AF78603960044B1F221A6001235B4204
:101200001800BD4602B080BD8402002080B584B0C5
:1012100000AFF860B9607A6000231800BD4604B0E2
:1012200080BD80B582B000AF786039603B688022B5
:1012300092015A6000231800BD4602B080BD80B5FF
:1012400082B000AF786001235B421800BD4602B057
:1012500080BD80B582B000AF7860044B02221A6076
:1012600001235B421800BD4602B080BD840200200D
:1012700080B582B000AF7860044B0A221A60012367
:101280005B421800BD4602B080BDC046840200200B
:1012900080B582B000AF78607B68022B01D8012353
:1012A00003E0044B09221A6000231800BD4602B077
:1012B00080BDC0468402002080B586B000AF786053
:1012C000124B7B61124B3B61124B1B68002B02D10E
:1012D000104B7A691A600F4B1B68FB600D4B1A6844
:1012E0007B68D3183A699A4205D20B4B0C221A60DC
:1012F00001235B4206E0074B1A687B68D218054B56
:101300001A60FB681800BD4606B080BDD8030020F7
:1013100000100020800200208402002080B588B0E8
:1013200000AFF860B9607A600023BB61FB68002BF6
:1013300022D10023FB611AE0FFF755FE03001A00DB
:1013400017217B181A70BB685A1CBA607A18127879
:10135000D2B21A70BB690133BB617B181B78DBB258
:101360000A2B01D1BB690EE0FB690133FB61FA690D
:101370007B689A42E0DB05E0054B09221A600123F5
:101380005B4200E0BB691800BD4608B080BDC046A6
:101390008402002080B586B000AFF860B9607A6042
:1013A000FB68013B012B11D800237B6109E0BB687E
:1013B0005A1CBA601B781800FFF706FE7B690133E0
:1013C0007B617A697B689A42F1DB05E0054B092273
:1013D0001A6001235B4200E07B681800BD4606B03E
:1013E00080BDC0468402002003460B437FD4002208
:1013F00043088B4274D303098B425FD3030A8B42A9
:1014000044D3030B8B4228D3030C8B420DD3FF2212
:10141000090212BA030C8B4202D31212090265D0E0
:10142000030B8B4219D300E0090AC30B8B4201D393
:10143000CB03C01A5241830B8B4201D38B03C01ADA
:101440005241430B8B4201D34B03C01A5241030B51
:101450008B4201D30B03C01A5241C30A8B4201D302
:10146000CB02C01A5241830A8B4201D38B02C01AAD
:101470005241430A8B4201D34B02C01A5241030A24
:101480008B4201D30B02C01A5241CDD2C3098B4209
:1014900001D3CB01C01A524183098B4201D38B0186
:1014A000C01A524143098B4201D34B01C01A524129
:1014B00003098B4201D30B01C01A5241C3088B426E
:1014C00001D3CB00C01A524183088B4201D38B0059
:1014D000C01A524143088B4201D34B00C01A5241FB
:1014E000411A00D201465241104670475DE0CA0FD2
:1014F00000D04942031000D34042534000229C4692
:1015000003098B422DD3030A8B4212D3FC2289019B
:1015100012BA030A8B420CD3890192118B4208D371
:10152000890192118B4204D389013AD0921100E0D3
:101530008909C3098B4201D3CB01C01A52418309E7
:101540008B4201D38B01C01A524143098B4201D314
:101550004B01C01A524103098B4201D30B01C01A3F
:101560005241C3088B4201D3CB00C01A52418308B9
:101570008B4201D38B00C01A5241D9D243088B420F
:1015800001D34B00C01A5241411A00D201466346B2
:1015900052415B10104601D34042002B00D5494216
:1015A000704763465B1000D3404201B5002000F055
:1015B00005F802BD0029F8D016E770477047C0460D
:1015C000F0B51F00002316008BB09F4204DA802183
:1015D00009067B181F002D23129A149C13702023D8
:1015E00003229C43462C07D02300453B59424B41E4
:1015F0001099013ACB18109309AB049308AB0393ED
:10160000139B00920293109B320001933B0000F069
:10161000CFFC0500472C1BD1119BDB0711D5109B7C
:10162000C3180793002200233000390003F000FAAA
:10163000002801D0079B09933022099B07998B4210
:1016400020D32800099B159A5B1B13600BB0F0BDDB
:10165000109BC3180793462CE4D10378302B0CD190
:10166000002200233000390003F0E2F9002804D101
:101670000123109A9B1A139A1360139B079A1B68F5
:10168000D318CEE7591C09911A70D6E7F0B52B2371
:1016900085B005000C1E027001DA4C4202336B70FB
:1016A000092C2EDDAB1C009302ABDE1D20000A21AD
:1016B000FFF780FF37003031013E200031700A21F2
:1016C0000194FFF791FE019B0400632BEEDCBA1E30
:1016D000130030340099147002A8073098420BD8D8
:1016E0000023904203D3093302AA9B18DB1B009A04
:1016F000D018401B05B0F0BD1878013308700131D7
:10170000EAE73023E418AB70281DEC70F1E7000025
:10171000F0B597B00C001C9D0A920B93099000F055
:101720009FFB036818000F9300F0ADFB0023072216
:1017300010901493237E0E93236811932B68073324
:1017400093430122C0CB2B607B005B080D930C966A
:10175000A664E7640C980D99A34B524205F0A2F8D9
:10176000002831D10C980D9901229F4B524203F071
:101770006FF9002828D1002200233000390003F03F
:101780005DF9002803D023002D2243331A70974BB4
:101790000C930E9B472B01D8954B0C9303230025EC
:1017A000119A236101339A4322600B9B210000931D
:1017B00009980A9B15AA00F0D7F9013000D098E0EB
:1017C0000120404217B0F0BD32003B00300039002C
:1017D00005F068F800280CD0002F03DA23002D2232
:1017E00043331A70834B0C930E9B472BD6D8824BF6
:1017F000D3E720220E9D636895435A1C43D10733DB
:1018000063608023119ADB00134300222360069259
:1018100014AA05920E9A0AA9049213AA03922322EB
:1018200052180292019363683200009309983B00BA
:10183000FFF7C6FE13990C90472D2AD1CB1C02DB73
:1018400063688B4243DA0E9E023EF3B20E93200091
:101850000E9A013950301391FFF718FF149A0500C2
:1018600013182361012A02DC2268D20701D5013353
:10187000236123230AAA9B5C002B96D023002D22F0
:1018800043331A7091E7472DBBD1002BB9D10133F7
:10189000B6E70E9B652BDAD90E9B662B19D16368D0
:1018A000002909DD2161002B02D12268D2070BD566
:1018B00001335B18236107E0002B03D1012220686C
:1018C000104200D09A1C22610025A165D1E7672350
:1018D0000E93149B8B4205DC23682161DB07F3D553
:1018E0004B1CE7E70122002901DC9218521A9B18D1
:1018F000E0E72268530508D423690C9A0A990998ED
:101900000B9DA847013029D15AE70E9B652B00D8C3
:10191000D5E0A06CE16C0022002303F089F80028D8
:1019200033D00123354A0A9909980B9DA847013005
:1019300000D145E7149E139BB34202DB2368DB070B
:101940000CD50B9D109B0F9A0A990998A847002562
:10195000013000D134E7731EAB420ADC23689B07D9
:1019600000D5FFE0159BE068984200DB2AE71800ED
:1019700028E7220001230A9909980B9F1A32B847D9
:10198000013000D11CE70135E5E7139B834237DCCA
:1019900001231A4A0A9909980B9DA847013000D1E2
:1019A0000EE7149E139B334302D12368DB07D5D582
:1019B0000B9D109B0F9A0A990998A84700250130A2
:1019C00000D1FDE6139B5B42AB4201DC330094E7A0
:1019D000220001230A9909980B9F1A32B847013057
:1019E00000D1EDE60135EDE7FFFFEF7FD86A000893
:1019F000D46A0008E06A0008DC6A0008E46A0008AB
:101A0000149EA76DB74200DD3700002F2FDCFB438B
:101A10000025DB173B400E93A76D0E9BFB1AAB42D4
:101A20002EDC139B9E4237DC2368DB0734D4139DE6
:101A3000F31B751B9D4200DD1D00002D35DCEB43C3
:101A40000027DB171D400C95139B0C9AF31A9B1A69
:101A5000BB4200DC82E7220001230A9909980B9D12
:101A60001A32A847013000D1AAE60137ECE73B0063
:101A70000C9A0A9909980B9DA8470130C7D19FE697
:101A8000220001230A9909980B9F1A32B8470130A6
:101A900000D195E60135BFE7109B0F9A0A99099886
:101AA0000B9DA8470130C2D18AE60C9B0A99DA192E
:101AB00009982B000B9FB8470130C0D180E6149ED7
:101AC000012E02DC01231A4239D001230C9A0A9913
:101AD00009980B9FB847013000D171E6109B0F9A0F
:101AE0000A9909980B9FB847013000D168E6A06CAD
:101AF000E16C731E0E930022002302F099FF002870
:101B00001BD10C9A0E9B01320A9909980B9EB04783
:101B100001300ED154E6220001230A9909980B9E48
:101B20001A32B047013000D14AE601370E9B9F427E
:101B3000F1DB22002B005032E0E60027F6E70C9A9A
:101B4000E2E7220001230A9909980B9E1932B04757
:101B5000013000D134E60135E368159A9B1AAB4297
:101B6000EFDCFFE60025F7E7F7B5160001938A687A
:101B70000B690C000090934200DA130022003360DE
:101B800043321278002A01D00133336023689B0668
:101B900002D53368023333602268062315001D40E6
:101BA0001A4227D0230043331B785A1E93412268E0
:101BB000920630D4220001990098089D4332A8472C
:101BC000013025D00622236800251340042B05D1BF
:101BD0003368E568ED1AEB43DB171D40A368226903
:101BE000934201DD9B1AED180026B54220D100205A
:101BF00010E00135E36832689B1AAB42D2DD220067
:101C0000012301990098089F1932B8470130F0D19B
:101C100001204042FEBD3020E11843310870210010
:101C20005A1C45310978A218433202331170C1E7BA
:101C30002200012301990098089F1A32B847013009
:101C4000E6D00136D1E70000F0B58BB007930590E0
:101C500006920A7E0C004331109B0391782A09D822
:101C6000622A0BD8002A00D1BAE07A490491582A96
:101C700000D18EE0250042352A7022E01000633842
:101C80001528F7D802F030FE16001F00F6FFF6FF09
:101C9000F6FFF6FF1F00F6FFF6FFF6FFF6FF9F00C8
:101CA00035007E00F6FFF6FFB000F6FF3500F6FFC8
:101CB000F6FF820025001A684235111D196013686D
:101CC0002B7001239EE01A682068111D196005061B
:101CD00001D5166803E04006FBD50023D65E002E32
:101CE00003DA2D23039A764213705A4B0A27049382
:101CF00013E01A68216840CA080602D4490600D5D4
:101D0000B6B21A60237E534A0A2704926F2B00D181
:101D1000023F2300002243331A706368A360002B44
:101D200006DB04212268039D8A43226033430CD0E2
:101D3000039D3000390002F067FE049B013D5B5CAF
:101D40002B70330006009F42F3D9082F09D1236876
:101D5000DB0706D5626823699A4202DC3023013D25
:101D60002B70039B5B1B2361079B2100009305984D
:101D7000069B09AAFFF7F8FE013048D10120404236
:101D80000BB0F0BD202221680A432260782232493C
:101D90000491210045310A701968226840C9100673
:101DA00002D4500600D5B6B21960D30702D520235D
:101DB00013432360002E01D01027AAE720222368B6
:101DC00093432360F8E71A682568101D616918605D
:101DD00013682E0601D5196002E06D06FBD5198047
:101DE0000023039D2361BFE71A68111D1960156860
:101DF00000212800626800F03BF8002801D0401B59
:101E00006060636823610023039A1370ACE72A00C3
:101E1000236906990598079DA8470130AED023682D
:101E20009B0715D4099BE0689842A9DA1800A7E738
:101E30002200012306990598079E1932B047013008
:101E40009CD00135E368099A9B1AAB42F0DCE9E7C4
:101E50000025F7E7E66A0008F76A0008F0307047E7
:101E600000487047F800002000487047F800002044
:101E7000C9B28218904201D10020704703788B428A
:101E8000FBD00130F6E70023C25C0133002AFBD10E
:101E9000581E7047F0B502690F6987B006000B0045
:101EA00000200291BA426DDB013FBC001433059360
:101EB0001B190393330014331C19019323680493F3
:101EC000039B04981D680135290002F017FD049B4F
:101ED0000090AB422BD3059B019D9C4600230593AC
:101EE0000493624608CA28689446009A99B25143FE
:101EF000059A1B0C8918009A53430A0C9B181A0C5C
:101F000089B2059282B2521A0499000C52189BB2FF
:101F10001114C31A5B18191492B21B04134308C599
:101F2000039B04916345DCD22368002B30D0300042
:101F3000029901F0CDF9002823DB34000025009B35
:101F4000029A0133009314341432236801CA0293B5
:101F50006B461B8981B2591A029B4919000C1B0C54
:101F60001B1A08141B181D1489B21B040B4308C448
:101F7000039B9342E9D2019ABB00D3181A68002A46
:101F800010D0009807B0F0BD2368002B04D1013FAA
:101F9000019B043CA342F7D33761C8E71A68002AC3
:101FA00004D1013F019A043B9A42F7D33761E8E735
:101FB000F0B514001D00C2699DB010941195259FC5
:101FC0000290002A10D1102000F0D4FD029B021EC6
:101FD000D86104D1EF21A34BA34801F0EDFB00230E
:101FE000436083600360C360116800290BD0012344
:101FF0005268029893404A608B6000F0C3FE002252
:10200000029BDB691A602E1E17DA01236E00DE4088
:102010003B601196954B954A3340934218D1944BAF
:10202000249A3603360B1360264301D100F073FD6A
:10203000269B002B04D18F4B20E000233B60E9E777
:102040008C4B05938C4B269A136005981DB0F0BD00
:10205000109A119B0C920D930C980D99002200235D
:1020600002F0E6FC071E0BD00123249A1360269B86
:10207000002B02D0814B269A1360814B0593E4E735
:102080001AAB01931BAB009302980C9A0D9B01F0C5
:1020900047FA1A9B0490310D0593B94279D00D9BF4
:1020A00019971A03774B120B1343774A8E180C9823
:1020B0000D9919000022754B03F0EAFF744A754B25
:1020C00003F02EFD744A754B02F0E0FC0400300072
:1020D0000D0004F03FFC724A724B03F021FD020038
:1020E0000B002000290002F0D1FC04000D0004F0D8
:1020F000F9FB0022039000232000290002F09EFC3F
:1021000000280BD0039804F025FC2B00220002F0DD
:102110008FFC43425841039B1B1A039301231393E3
:10212000039B162B0FD80C980D99039A5E4BD20087
:102130009B180CCB02F082FC002846D0039B013B8D
:10214000039300231393059B9E1B00230693731E8A
:1021500003D50122931B069300230A93039B002BB4
:1021600035DB0A9B039A9B180A93002312920E9365
:10217000229B0124092B5FD8052B02DD0024043BA0
:102180002293229B981E032860D802F0A3FB515390
:102190003529059B1B9FDF19444BFA18202A0FDDB8
:1021A00040239B1A9E40424B3000FB18DC402043EA
:1021B00004F004FC01223F4B7E1ECB18199278E7F5
:1021C000202320009B1A9840F2E71390BBE7069B60
:1021D000039A9B1A069353420E9300231293C7E768
:1021E0000123239A0F93039B9B180B9301330893AE
:1021F000002B08DC012306E001230F93239B002B17
:1022000028DD0B930893029A0021D069042215005F
:1022100014359D4223D94160029800F071FD05906C
:1022200000284BD1B021244B0F48059AFF31D4E64A
:102230000023E2E70023D4E700230F942293013B1D
:1022400000220B93089323921333DCE701230F93AF
:10225000023BF5E701230B9308932393D3E7013166
:102260005200D4E7156B00082C6B00080000F07FCB
:102270000F270000116B0008146B0008E56A0008C6
:10228000E46A00080000F03F01FCFFFF0000F83F97
:1022900061436F63A787D23FB3C8608B288AC63F6C
:1022A000FB799F501344D33FA86C00083204000010
:1022B00012040000000010FE856B0008029B059AC6
:1022C000DB691A60089B0E2B00D981E0002C00D13D
:1022D0007EE0039B002B00DCCDE00F21039ACD4B69
:1022E0000A40D2009B18C0CB039B02251C110C9AFC
:1022F0000D9B14921593039BDB050AD5C64B0C402E
:102300001A6A5B6A0C980D9902F0D4FF149015912B
:102310000135C14B0993002C00D09CE0149815990D
:1023200032003B0002F0C6FF06000F00139B002B9B
:1023300000D1CAE0002230003900B84B02F07EFB29
:10234000002800D1C1E0089B002B00D1BDE00B9B11
:10235000002B3DDD039B3000013B39000993002237
:10236000AF4B03F0DDFB06000F000B9C013528008E
:1023700004F0F0FA32003B0003F0D2FB0022A94B3C
:1023800002F084FBA84B14901591CB181593149A66
:10239000159B16921793002C00D09AE00022300073
:1023A0003900A24B03F074FE169A179B06000F002B
:1023B00002F058FBA04200D0D1E28020159900061F
:1023C0000B18149A3000390002F038FBA04225D1D6
:1023D0001B9B002B00DA93E1039A0E2A00DD8FE1AC
:1023E0008C4BD2009B1818CB06930794239B002B91
:1023F00000DB1FE1089B002B00DD1BE10ED10698DE
:1024000007990022894B03F08BFB02000B000C980C
:102410000D9902F01DFB002800D1A3E20026370031
:10242000239B059CDB430993039700273100029807
:1024300000F0A8FC039B002B00D1E0E0002F05D0AA
:102440009F4203D03900029800F09CFC0399029847
:1024500000F098FCD3E001231C4208D0ED18099B42
:1024600030000CCB390003F05BFB06000F00099B2A
:10247000641008334EE7039B02250C9E0D9F002B32
:1024800000D153E70F225C422240624BD2009B18DE
:1024900030000CCB390003F043FB06000F005E4B0D
:1024A00024110993002C00D140E701231C4208D0DD
:1024B000ED18099B30000CCB390003F031FB06000E
:1024C0000F00099B64100833EBE7039B089C0993FA
:1024D0004DE7504B621ED2009B1803CB059BE318BF
:1024E00018930F9B002B49D002000B00002050498D
:1024F00002F0E0FE169A179B03F0CAFD059B1490AC
:10250000159116933900300004F0ECF9050004F041
:1025100021FA02000B003000390003F0B9FD169BD0
:1025200030355C1C1D70149A159B06000F0002F0DC
:1025300085FA002863D132003B000020374903F0C0
:10254000A7FD149A159B02F079FA002800D0BAE092
:10255000189B9C4200D13BE7149815990022304B00
:1025600003F0DEFA0022149015912D4B3000390053
:1025700003F0D6FA169406000F00C3E7169A179BCD
:1025800003F0CEFA14901591059C3900300004F048
:10259000A9F9050004F0DEF90B0002003900300053
:1025A00003F076FD3035189B2570013406000F00CE
:1025B000A34227D11498159900221D4B02F066FA08
:1025C00002000B0030003900189C02F04BFA002882
:1025D00000D078E0149A159B0020154903F058FDAF
:1025E00002000B003000390002F028FA002800D168
:1025F000EEE62300013C2278302AFAD01C00099B29
:1026000003934EE00022064B03F08AFA06000F0007
:10261000BBE7C046A86C0008806C00080000F03FD3
:102620000000244000001C400000C0FC00001440DA
:102630000000E03F089F059E013FBF19069A079BD7
:102640000C980D9902F036FE04F04CF9050004F0E8
:1026500081F9069A079B03F063FA02000B000C98BD
:102660000D9903F015FD2A00330030320136340095
:102670001A709F4237D102000B0002F007FA069A47
:10268000079B06000F0002F0EDF9002819D1069A09
:10269000079B3000390002F0CBF9002801D0ED078C
:1026A0000FD40499029800F06DFB00232370039B64
:1026B000249A01331360269B002B00D1C5E41C60D3
:1026C000C3E4039B099323001C00013B1A78392AB9
:1026D00006D1059A9A42F7D1099A0132099230221D
:1026E00001321A708BE70022C54B03F019FA002261
:1026F00000230C900D9102F09BF900289ED0D0E7AA
:102700000F9F0E9D069C002F14D0229A012A00DDF7
:10271000E3E0199A002A00D1D9E0BA4A9B18069A38
:102720000121D21806920A9A0298D3180A9300F04F
:1027300031FC0700002C0ED00A9B002B0BDD0A9AFF
:102740002300944200DD1300069AE41AD21A06927E
:102750000A9AD31A0A930E9B002B21D00F9B002BB1
:1027600000D1D2E0049E002D14D039002A00029836
:1027700000F0E0FC049A01000700029800F020FC41
:1027800006000499029800F0FDFA0E9B04965B1B6C
:102790000E9305D031000E9A029800F0CBFC049005
:1027A0000121029800F0F6FB129B0600002B00D1DD
:1027B000BBE11A000100029800F0BCFC229B06005D
:1027C0000025012B16DC0025109BAB420ED1119B7E
:1027D0001B03AB420AD18C4B119A134206D0069BC5
:1027E0000135013306930A9B01330A93129B0120A2
:1027F000002B08D0336903339B00F318586800F0AE
:1028000077FB2023181A0A9B1F2218180300134075
:10281000104200D180E01B2B7ADC033AD31A069ACF
:10282000E418D21806920A9AD3180A93069B002B32
:1028300005DD1A000499029800F0DEFC04900A9B62
:10284000002B05DD31001A00029800F0D5FC0600CF
:10285000139B002B62D03100049800F039FD002852
:102860005CDA039B0A22013B099304990023029836
:1028700000F0AEFA0F9B0490002B00D15CE1002326
:1028800039000A22029800F0A3FA0B9B0700002BE4
:102890004EDC229B022B47DD0B9B002B00D0BFE5BB
:1028A000310005220B9B029800F092FA060001000D
:1028B000049800F00DFD002800DCB1E5059B059AA9
:1028C0005C1C31231370099B01330993ACE536235B
:1028D0001A9A0E9D9B1A069C21E7089B5D1E0E9B73
:1028E000AB4208DB5D1B089B002BF4DA069B089AC1
:1028F0009C1A002313E70E9B129AEB1AD31812931B
:102900000E95069C0025089B09E70E9A049943E75B
:102910001C2B8BD02022D31A1C3380E7039B0993F6
:10292000089B0B93002BB4DD0F9B002B00D107E11C
:10293000002C05DD39002200029800F05DFC070044
:102940000397002D20D07968029800F0D9F9041E71
:102950000CD122002D4B2E482E49FFF73EFB2600BE
:102960003700ABE7039B089E0993F9E739003A6902
:102970000C31023292000C3000F014FF01222100D1
:10298000029800F039FC0390059B0B9A0693013BDB
:102990009B1801220E93109B13400C933100049856
:1029A000FFF778FA390005000A90049800F090FCCF
:1029B000039A0B903100029800F0A4FC0122C36836
:1029C000040030350892002B04D10100049800F077
:1029D0007FFC08902100029800F0D4F9069B229A0F
:1029E0005C1C089B13430C9A134315D1392D2ED030
:1029F0000B9B002B01DD0A9D3135069B1D7015E5F3
:102A000000002440330400000000F07F856B0008C4
:102A10002C6B0008EF0200000B9B002B04DB229ABA
:102A200013430C9A13431DD1089B002BE5DD049939
:102A30000122029800F0E0FB3100049000F048FC15
:102A4000002802DCD9D1EB07D7D5392DD3D1069A8E
:102A5000157023001C00013B1A78392A51D001322D
:102A60001A70E3E4089B002B03DD392DEFD001350C
:102A7000C3E7069B069A1D700E9B93422CD0002341
:102A80000A220499029800F0A3F9039B04909F4244
:102A900009D1390000230A22029800F099F90700B1
:102AA000039006947AE7390000230A22029800F086
:102AB0008FF9002307000A220399029800F088F991
:102AC0000390EEE700240B9BA34200DD5C1E0397FE
:102AD0000027059B0133E41804990122029800F0B5
:102AE0008BFB3100049000F0F3FB0028B1DC01D136
:102AF000ED07AED423001C00013B1A78302AFAD02F
:102B000094E4059A9A42A5D1099B059A0133099349
:102B1000312313708AE4154B269A0593144BB24265
:102B200001D0FFF790FAFFF790FA229B012B00DC0F
:102B300049E60120129D66E60B9B002B00DCA8E60F
:102B4000002431000498FFF7A5F9059B3030185593
:102B50000B9B01340500A342B4DD00230A22049933
:102B6000029800F035F90490EBE7C046086B0008C6
:102B7000106B000810B5034B0100186800F030F826
:102B800010BDC0467401002010B5034B0100186849
:102B900000F062FE10BDC0467401002070B50F4CFD
:102BA0000E0021680500002902D100F0D3FD20604D
:102BB0003100280000F0CEFD431C03D10124644203
:102BC000200070BD0323C41C9C43A042F8D0211AEE
:102BD000280000F0BFFD0130F2D1EFE788020020AD
:102BE000F7B50322CB1C9343083305001F000C2BC1
:102BF00034D20C27B94233D8280000F071F8374E90
:102C000033681C00002C2FD139002800FFF7C6FFC5
:102C10000400431C5FD134680094009B002B4AD110
:102C20009C4252D023682800E3180099019300F0D9
:102C300091FD019B834248D123682800FF1A390087
:102C4000FFF7ACFF013040D02368DB192360336805
:102C50005A68002A33D1009B336019E0002BC9DA8F
:102C60000C232B600020FEBD2168C91B20D40B293A
:102C70000AD9E2192760A34204D132606368116067
:102C8000536005E05A60F9E76268A3420ED13260F2
:102C9000280000F02DF8200007220B30231D904360
:102CA000C21A9842DFD01B1AA350DCE75A60EFE744
:102CB00023006468A6E7009C63680093ADE71A00F0
:102CC0005B68A342FBD10023DAE70C2328002B60CA
:102CD00000F00EF8C6E70760DAE7C0468C02002075
:102CE00010B5024800F04DFD10BDC046980200200E
:102CF00010B5024800F04BFD10BDC0469802002000
:102D000070B5C46905000E00002C10D11020FFF72B
:102D100031FF041EE86105D122006B21174B1848D2
:102D200000F04AFD0023436083600360C360E368F2
:102D3000002B0BD121220421280000F060FDEB695B
:102D4000E060DB68002B01D1002070BDB2009B1851
:102D50001868002805D002681A6000230361C36068
:102D6000F3E701210C00B440621D2800920000F03E
:102D700046FD0028E8D046608460EEE7156B000849
:102D8000966B000870B5C46906000D00002C0FD1C9
:102D90001020FFF7EFFE0200F061A04204D18F2166
:102DA000094B0A4800F008FD446084600460C46078
:102DB000002D07D0F3696A68DB6892009B181A68D7
:102DC0002A601D6070BDC046156B0008966B000838
:102DD000F7B50F0001900C001E0000200D6914379C
:102DE0003B68013099B251431B0C534389190E0CB7
:102DF0009B191E0C89B21B045B1808C78542EFDCC7
:102E0000002E22D0A368AB4219DC61680198013121
:102E1000FFF776FF071E05D13A00BA210C4B0D488B
:102E200000F0CAFC210022690C31023292000C3001
:102E300000F0B8FC21000198FFF7A4FF3C002B1D17
:102E40009B00E31801355E6025612000FEBDC04691
:102E5000856B0008966B0008F7B5060018000F0098
:102E60000830092101931400FEF7BEFA0123002166
:102E700083420ADB3000FFF743FF011E08D10A003E
:102E8000194B1A48D33100F097FC5B000131EFE792
:102E9000089B436101230361092C08DC3D000924E0
:102EA0000A352700019B9F4214DB0800FEBD3B0052
:102EB00009331D0000933F192B780A223000303B64
:102EC000FFF786FF01350100BD42F5D1009B1D19BA
:102ED000083DE6E72B1BDB5D0A223000303BFFF7A5
:102EE00077FF01370100DDE7856B0008966B00086E
:102EF0008022030052020020934201D21B041030B2
:102F000080225204934201D208301B0280225205D3
:102F1000934201D204301B018022D205934201D298
:102F200002309B00002B03DB0130134200D1202034
:102F30007047036801000722180010B510401342C3
:102F40000DD001240020234205D10230034203D0DA
:102F5000E34020000B6010BD9B080B60FBE79AB2BA
:102F6000002A01D110201B0CDAB2002A01D108304E
:102F70001B0A1A0701D104301B099A0701D102303C
:102F80009B08DA07E9D45B0801D00130E5E720208F
:102F9000E1E7000010B50C000121FFF7B1FE0028A9
:102FA00006D146210200044B0448FF3100F004FC26
:102FB00001234461036110BD856B0008966B000816
:102FC000F0B50D6916690F0014008BB0B54204DB33
:102FD00033000C002E0017001D0073190293A36824
:102FE00072196168934200DA0131FFF789FE01909E
:102FF000002806D1B1214D4B4D48019A490000F0FF
:10300000DBFB019B002214339C4673199B00634435
:103010000393634603998B4228D32300B6001433ED
:1030200014370693AD009B1904937B190993230071
:1030300000220498153398425241031B153B9B080C
:10304000009707920893009B099A934210D3029B22
:10305000002B05DD039B043B03931B68002B60D012
:10306000019B029A18001A610BB0F0BD04C3D1E7AE
:10307000009B186880B2002823D067460025069E72
:1030800002CE3B6805938BB243431A006B46090C92
:103090009B8A4143D318059A5B19120C89181A0CA4
:1030A0008A189BB2150C12041A43049B04C7B3423E
:1030B000E6D80023079A9A4201D0089B9B006344FC
:1030C0005D60009B1868000C25D063461A682500D7
:1030D00066461100002714352B68090C9BB2434348
:1030E000DB195B18190492B21143316080CD71680D
:1030F0003F0C47438AB2BA181B0CD218049B170C1A
:103100000436AB42E8D800230799994201D0089BC6
:103110009B0063445A60009B0433009304239C4447
:1031200091E7029B013B029391E7C046856B000843
:10313000966B0008F7B50323150007000C001A4032
:103140001D4208D02849013A92005258002321001C
:10315000FFF73EFE0400AB10019342D0FD69002D45
:1031600011D11020FFF706FD051EF86106D1B4212C
:103170002A001E4B1E48FF3100F01EFB0023436057
:1031800083600360C360AE68002E07D13800194920
:10319000FFF700FF00230600A86003600122019BE7
:1031A00025001340019A52100192002B0CD02100EF
:1031B00032003800FFF704FF290004003800FFF751
:1031C000E1FD019B002B0CD03068002807D13200B4
:1031D00031003800FFF7F4FE002330600360060082
:1031E000DCE72000FEBDC046486C0008156B0008F7
:1031F000966B000871020000F0B50C001600236900
:10320000571187B0FB180293013301934968A368F3
:103210000390019A934210DB0398FFF771FD00239E
:10322000020005001900143298420CD1DF312A0047
:10323000254B2648FF3100F0BFFA01315B00E8E77B
:10324000980011500133BB42FADBFB43DB171F40F0
:10325000BF002300D2191F203700216914338900D1
:10326000059259180740064228D00130C01B04902F
:1032700000201E689446BE4006436046066001CBAF
:10328000049E0432F0409942F3D822001532002304
:10329000914203D30B1B153B9B089B00059AD31847
:1032A0005860002801D1029B0193019B03982100E3
:1032B0002B61FFF767FD280007B0F0BD40CB16601B
:1032C00004329942FAD8EEE7856B0008966B000845
:1032D00030B50B6904690200E01A9C420ED19B00D4
:1032E00014321431D418C918043C043925680B6809
:1032F0009D4204D001209D4200D2023830BDA2423E
:10330000F2D3FBE7F0B50C0087B00090110020006D
:103310001700FFF7DDFF051E11D101000098FFF730
:10332000EFFC0200A84204D1434B4448444900F05A
:1033300043FA012345610361100007B0F0BD002688
:10334000B04203DA23003C001F0001366168009898
:10335000FFF7D6FC021E03D1374B38483949E6E760
:103360002369143400939B00E318019314239C46B3
:103370003B69BC449B00634402930300C660002089
:1033800014330393059304946146049B20CB049368
:1033900008C9AEB28C4699B2711A09182D0C1B0CD3
:1033A0000814EB1A1B18181489B21B041943059B47
:1033B00002C30593029B6345E6D83B00029D15338B
:1033C00000219D4203D3EB1B153B9B089900039BF7
:1033D0005B1861180E1D350004330293039B1B1B01
:1033E0000393019B9D4211D3019801310023884230
:1033F00003D3C31C9B1B9B089B0002995B18043BD7
:103400001968002914D0009B136195E7039B0700FE
:103410009C46AC4408CD98B2C01900141C0C041989
:10342000DB1920149BB22404234364462360D8E7AD
:10343000009901390091E2E7856B0008966B00085E
:10344000370200004502000010B500240C4B0D4A65
:103450000B409B18A34206DC5B421A15132A05DCBD
:1034600080231B0313411900200010BD143A0124CE
:103470001E2A02DC80242406D4400023F3E7C04641
:103480000000F07F0000C0FCF7B5060003691436A9
:103490009B00F3181D1F2C680F0020000193FFF7FD
:1034A00027FD20231B1A1D493B600A2816DC0B232D
:1034B00027001B1ADF4039439C460B000021AE4217
:1034C00002D2019908390968153084406046270006
:1034D000C1400F433800190003B0F0BD0027AE42D1
:1034E00002D2019D083D2F680B235B429C46844419
:1034F0000B2810D0634620209C40C01A3B00C340DC
:103500001C4321430B000021B54201D9043D296829
:103510006446A740DCE721430B00DBE70000F03FF7
:10352000F7B5012116001F00FFF7EAFB041E05D1C5
:103530002200254B2548264900F03EF93B037D003B
:103540001B0B6D0D02D08022520313430193002EFA
:1035500025D068460096FFF7ECFC009900281CD0A7
:10356000019B20221E00121A96403200C3400A43DB
:1035700062610193019EA661731E9E410136266120
:10358000002D14D03526134BED18089B2D181D6007
:10359000099B361A1E602000FEBD6161EAE701A8A2
:1035A000FFF7C7FC019B012663612030E7E70A4B68
:1035B000C018089B1860094BF3189B00E318586962
:1035C000FFF796FC7601E3E7856B0008966B000831
:1035D0000F030000CDFBFFFFCEFBFFFFFFFFFF3F10
:1035E000F0B585B00F0002A90600FFF74DFF0400FB
:1035F0000D00380003A900940195FFF745FF3669D7
:103600000200B4463E696746BE1B7601B446039F7E
:10361000029E0B00F61B66443705002E07DD791964
:1036200001910098019901F045FE05B0F0BDCB1B5A
:10363000F7E7000010B50400172804DC074BC400AE
:103640001B1903CB10BD002005490022054B013C8E
:1036500002F066FA002CF8D1F4E7C046A86C000826
:103660000000F03F0000244070B51400050001394F
:10367000136949110131890014349B004118E31882
:10368000A3420DD8140011340025A34203D39B1A82
:10369000113B9B089D0000234019884203D370BD55
:1036A00040CC40C5ECE708C0F7E70200006910B560
:1036B00014324B11984213DB0CDD1F24080020400C
:1036C000214207D099008C582100C140814001203F
:1036D0008C4204D19B00D318934203D8002010BD24
:1036E0000300F7E7043B19680029F5D00120F6E74D
:1036F00070B5151E05D010000A4900F049F80028E1
:1037000001D1094870BD2800074900F041F80028A0
:10371000F7D02800054900F03BF80028F1D0002040
:10372000F0E7C046F26B0008F06B0008356C00084B
:103730009422024B5200985C7047C046080000205B
:1037400010B5034B0A0001001868FFF7D1FF10BD48
:1037500074010020002370B5064C050008002360AA
:10376000FDF7AAFD431C03D12368002B00D02B607A
:1037700070BDC04684020020704770477047704794
:1037800070477047012070470120704770477047AD
:1037900002780B78002A03D0013001319A42F7D029
:1037A000D01A7047002310B59A4200D110BDCC5CEE
:1037B000C4540133F8E700007FB514001A00094B28
:1037C00006001B68D868084B002C01D1074B1C0071
:1037D0000193009133000649029400F0C3F800F011
:1037E000D9F8C04674010020FA6B0008356C000857
:1037F000076C0008130010B50022FFF7DDFF70B55D
:103800000B0C150C002B1ED19D420CD189B294B229
:103810004C432100FFF7E4F9051E1BD022000021D4
:1038200000F0B0F816E02B1C0C1C89B292B2A4B2C6
:103830004A439BB26343140C1C19230C07D1240484
:1038400092B21443E5E7002D01D1141CEDE70C23DF
:1038500000250360280070BD70B50500002910D058
:103860000C1F2368002B00DAE4182800FFF738FA51
:103870001D4A1368002B05D1636014602800FFF710
:1038800037FA70BDA34208D9206821188B42F3D1C2
:1038900019685B6809182160EEE71A005B68002B65
:1038A00001D0A342F9D911685018A0420BD1206869
:1038B0000918501811608342E0D118685B684118FC
:1038C00011605360DAE7A04202D90C232B60D5E7E0
:1038D000206821188B4203D119685B6809182160A0
:1038E00063605460CAE7C0468C02002037B5069D6D
:1038F000024C00952468A0473EBDC046EC00002065
:1039000082B0002900D101A9101E06D0002B06D0DC
:1039100013780B601078431E984102B07047022064
:103920004042FAE710B5024C2468A04710BDC046DB
:10393000E80000200B1E04D0FF2A04D98A2303606C
:103940008B3B1800704701230A70FAE70CB407B5E7
:1039500004AB04CB019300F05BF803B008BC02B0E9
:10396000184700000EB417B5054C05AB04CB010099
:103970002068019300F04CF81EBC08BC03B0184747
:103980007401002003008218934200D1704719701F
:103990000133F9E7062010B500F088FD0120FDF79E
:1039A000D5FB936810B5013B9360002B04DA946952
:1039B000A34207DB0A2905D01368581C1060197050
:1039C000080010BD00F03EFC0100F9E7F8B5060064
:1039D0000F001400D518AC4201D1002007E0217877
:1039E0003A003000FFF7DDFF0134431CF3D1F8BD8E
:1039F000002310B5140092689A4205D0220000F00E
:103A000057FA00220300A26000221800626010BD75
:103A1000F0B59FB00E0017001C000290002804D0E3
:103A2000036A002B01D100F00FFA736EDB0705D497
:103A3000B3899B0502D4B06DFFF7A3FEB3891B07C2
:103A400002D53369002B13D13100029800F046FCF7
:103A500000280DD0736EDB0703D5012040421FB054
:103A6000F0BDB3899B05F8D4B06DFFF790FEF4E785
:103A7000002306AD6B6120336B761033AB76059473
:103A80003C002378002B01D0252B43D1E31B03936B
:103A9000BC420BD03A0031000298FFF797FF01308B
:103AA00000D1A4E06B69039A9B186B612378002B0B
:103AB00000D19CE00122002352426A6002AA5332E4
:103AC00001342B60EB60AB601370AB65544F052283
:103AD00021783800FEF7CCF92A68611C00281BD138
:103AE000D30603D52023532702A8C355130703D5B4
:103AF0002B23532702A8C35523782A2B13D0002049
:103B00000A21EB682278303A092A4FD9002812D0CE
:103B1000EB6010E00134B4E70123C01B8340134382
:103B20000C002B60D2E7059B181D1B680590002B2D
:103B300036DBEB600C0023782E2B0CD163782A2B1C
:103B400039D1059B02341A1D1B680592002B01DA3E
:103B500001235B426B60334F032238002178FEF76C
:103B600087F9002806D04023C01B83402A6801340F
:103B700013432B60217806222B482976FEF778F92B
:103B8000002843D02948002827D10722059B073366
:103B90009343083305936B69671C1B186B616FE7D0
:103BA0005B42EB60022313432B60C3E74B430120CE
:103BB00001349B18A6E700230A201A0001346B6029
:103BC00021783039092903D9002BC4D06A60C2E7B3
:103BD0004243012301345218F2E705AA009229005A
:103BE0003200134B0298FDF793FD431CD3D1736E43
:103BF000DB0705D4B3899B0502D4B06DFFF7C7FD81
:103C0000B3895B0600D528E7686928E705AA009212
:103C100029003200064B0298FEF716F8E5E7C04689
:103C2000366C00083C6C0008406C00081117000856
:103C3000CD39000810B5044C13000A0001002068BB
:103C4000FFF7E6FE10BDC04674010020002310B54A
:103C5000040003604360836081814366C281036125
:103C600043618361190008225C30FFF78BFE0B4B28
:103C7000246263620A4BA3620A4BE3620A4B23632A
:103C80000A4B9C4205D00A4B9C4202D0094B9C42F5
:103C900003D120005830FFF770FD10BDA941000886
:103CA000D54100080D420008394200089C0200205E
:103CB000040300206C03002010B5034A03490448A4
:103CC00000F056FA10BDC046C40100202D47000880
:103CD0007801002041680B4B10B50400994201D0D7
:103CE00000F024FDA168084B994202D0200000F0AA
:103CF0001DFDE168054B994202D0200000F016FD41
:103D000010BDC0469C020020040300206C0300206C
:103D10004B6E10B5DB0705D48B899B0502D4886DEB
:103D2000FFF72FFD002010BD4B6E10B5DB0705D44B
:103D30008B899B0502D4886DFFF729FD002010BDFB
:103D400010B5094B094A04211A6009480022FFF7FF
:103D50007DFF012209210748FFF778FF0222122187
:103D60000548FFF773FF10BDD4030020B93C0008DD
:103D70009C020020040300206C03002010B50248C0
:103D8000FFF7FFFC10BDC0469B02002010B50248A3
:103D9000FFF7FDFC10BDC0469B020020F8B50700F0
:103DA000FFF7ECFF254B1B68002B01D1FFF7C8FF85
:103DB000234EB4687368013B10D53568002D3AD1A5
:103DC000D62138004900FEF70BFF0400A84226D197
:103DD0003060FFF7DBFF0C233B601CE00C22A55E8C
:103DE000002D1AD12000174B5830E3606566FFF7AD
:103DF000C4FCFFF7CBFF2000082229002560A56046
:103E0000656025616561A5615C30FFF7BBFD656399
:103E1000A563A564E5642000F8BD6834CBE70423FE
:103E2000D02205602900250043600C30A0605200BC
:103E3000FFF7A8FD34602E00BBE7C046D403002086
:103E4000C40100200100FFFF10B50400FFF796FF3A
:103E5000236A002B02D0FFF799FF10BD044B2362A9
:103E6000044B1B68002BF6D1FFF76AFFF3E7C0464F
:103E7000D53C0008D403002010B5FFF77FFF0020D9
:103E8000024A034900F074F910BDC046C401002085
:103E9000113D000810B5044A0449002000F068F9FB
:103EA000FFF774FF10BDC046C4010020293D000883
:103EB000F0B5936887B00C0002900492002B02D1F9
:103EC000002007B0F0BD8B891B0756D50B69002B6E
:103ED00053D0049B1B6801930C22A35E02221E0098
:103EE000164013426FD1012201211A400B4200D12A
:103EF000A5E0300037000396002F00D110E1002824
:103F00000AD13A000A210398FDF7B2FF7E1C00286F
:103F100002D0039B0130C61A0596BE4200D9059710
:103F2000206822696369904200D802E1A568059A79
:103F30005D19AA4200DCFCE003992A0000F02AFA8D
:103F4000236821005B190298236000F0EFFB002832
:103F500070D10120761B05D12100029800F0E6FB0C
:103F6000B04267D1049B049A9B685B1B9360A7D007
:103F7000039B7F1B5B190393BEE72100029800F0AF
:103F8000ADF90028A5D0012040429AE7019B1E68A8
:103F90005D6808330193002DF8D0724A2B009542DA
:103FA00000D913003200A76A216A0298B847002896
:103FB00040DD049B049A9B681B1A936000D17FE745
:103FC00036182D1AE7E700263500E4E7019B1B6849
:103FD0000393019B5F6808330193002FF6D00C22F6
:103FE000A35E80229200A6682068134268D00596DE
:103FF000BE4261D89022D20013425FD02169421A9A
:104000000320059262694243D50FAD18059A6D10E1
:10401000501CC0192A00A84201D9050002005B0506
:104020003CD511000298FEF7DBFD061E0AD10C23D9
:10403000029A13604023A2891343A381A3E71700C8
:104040000392CAE7059A2169FFF7ACFBA289464BA8
:104050001A4080231343A381059B2661F61826602E
:104060003E006561ED1AA5603D000597059A03992C
:10407000206800F08FF9A368059A9B1BA360236852
:104080009B182360049B049A9B685B1B936000D180
:1040900016E7039B7F1B5B1903939EE7029800F0D2
:1040A0008FFA061ED8D121690298FFF7D5FB80222E
:1040B000A3899343A381BAE73E00D5E73D00D5E746
:1040C0002369834202D36569BD4216D9BE4200D935
:1040D0003E003200039900F05DF9A36822689B1B43
:1040E00092193500A3602260002BCBD121000298E9
:1040F00000F01CFB0028C5D09CE7802338001B067D
:104100009F4200D319482900FDF76EF92B00A66ADB
:104110004343039A216A0298B047051EB2DC89E73F
:10412000019B00201B680393019B5F680833019388
:10413000E2E6059A934208DCA56A039A216A02988E
:10414000A847051E00DD04E774E7059A039900F00F
:1041500021F9059AA36815009B1AA36023689B1890
:104160002360F6E600FCFF7F7FFBFFFFFFFFFF7F82
:10417000F7B51400002600900191A5686768013F1B
:1041800004D52468002CF8D13000FEBDAB89012B8A
:1041900008D90E22AB5E013304D029000098019BA0
:1041A000984706436835EAE770B50C000E25495F6D
:1041B00000F0C8F9002803DB636D1B18636570BD50
:1041C000A389024A1340A381F9E7C046FFEFFFFF2E
:1041D00000207047F8B51F008B8905000C00160001
:1041E000DB0505D50E23C95E0022022300F096F9F7
:1041F000A389054A28001340A38132000E23E15E03
:104200003B0000F0C9F9F8BDFFEFFFFF70B50C00EF
:104210000E25495F00F082F90C22A35E421C03D1F7
:10422000044A1340A38170BD802252011343A3812D
:104230006065F8E7FFEFFFFF10B50E23C95E00F0E1
:104240005BF910BDF8B505000F001400002804D07C
:10425000036A002B01D1FFF7F7FDA369A360A389CF
:104260001B0702D52369002B09D12100280000F08B
:1042700035F8002803D0012676423000F8BD2369C6
:104280002068C01A6369834205DC2100280000F021
:104290004DFA0028EFD1A3680130013BA3602368E9
:1042A000FEB25A1C22601F706369834204D0A38946
:1042B000DB07E2D50A2EE0D12100280000F036FA13
:1042C0000028DAD0D7E7000010B5034B0A00010040
:1042D0001868FFF7B7FF10BD740100202C4B70B5B4
:1042E000050018680C00002804D0036A002B01D1D7
:1042F000FFF7AAFD0C22A35E1A0721D4DA0607D421
:1043000009222A60402201201343A381404238E061
:104310005A0712D5616B002908D023004433994213
:1043200002D02800FFF798FA002363632422A389B0
:104330009343002262602269226008221343A38112
:104340002369002B0BD1A0238022A1899B0092001E
:104350000B40934203D02100280000F055FA0C22B4
:10436000A35E01211A000A400B420BD00022A2607A
:1043700062695242A26100202269824201D11A067A
:10438000C0D470BD990700D46269A260F3E7C0464B
:104390007401002010B5884202D98B18984209D3C5
:1043A00000239A4208D0CC5CC4540133F9E7013AA7
:1043B0008B5C8354002AFAD110BD70B5C56B040024
:1043C000002D0AD18021FEF70BFCE063A84206D045
:1043D0000300803320C09842FCD1002070BD012032
:1043E0004042FBE770B504000D0016001F2904D9F8
:1043F000162303600120404206E0C36B002B04D06B
:10440000E36BAD0058595E5170BDFFF7D6FF002831
:10441000F6D0EFE770B504000D001F2904D916236C
:1044200003600120404270BDC36B002B04D08A00A2
:104430009B181A68002A08D1200000F0A9F82A0069
:104440000100200000F092F8EDE7012A09D0511C8C
:1044500003D1162303600120E5E70021280019603D
:1044600090470020DFE770B504000D001F2902D936
:104470000120404270BDC36B002B12D0E26BAB0039
:10448000D21813680120002BF4D00220591CF1D05F
:104490000130012BEED00024280014609847200042
:1044A000E8E7FFF78AFF0028E8D0E1E710B5034B03
:1044B00001001868FFF7AEFF10BDC0467401002070
:1044C00010B5034B0A0001001868FFF78BFF10BD01
:1044D0007401002010B5024B1868FFF76EFF10BD85
:1044E0007401002010B5034B01001868FFF7BBFFF3
:1044F00010BDC04674010020002370B5064C0500B5
:1045000008002360FCF727FE431C03D12368002B1F
:1045100000D02B6070BDC0468402002070B505003D
:10452000080011000022064C22601A00FCF76EFE03
:10453000431C03D12368002B00D02B6070BDC04604
:104540008402002070B50500080011000022064C0E
:1045500022601A00FCF7E2FE431C03D12368002B03
:1045600000D02B6070BDC04684020020002370B5CF
:10457000064C0500080011002360FCF727FE431CD1
:1045800003D12368002B00D02B6070BD8402002073
:1045900010B5FCF715FE10BD70B505000800110040
:1045A0000022064C22601A00FCF7F4FE431C03D1E3
:1045B0002368002B00D02B6070BDC0468402002011
:1045C000F7B506000C001500002905D11100FEF713
:1045D00007FB04002000FEBD002A03D1FFF73CF9D1
:1045E0002C00F7E700F06EF90700854202D8430877
:1045F000AB42EFD329003000FEF7F2FA0190002819
:1046000001D1019CE6E72A00BD4200D93A00210011
:104610000198FFF7C7F821003000FFF71DF9F0E718
:10462000F7B50C228B5E05000C001A0757D44A68B8
:10463000002A02DC0A6C002A4FDDE76A002F4CD00A
:10464000002280212E682A601A0049010A400B428C
:1046500034D0626DA3895B0706D56368D21A636B99
:10466000002B01D0236CD21A00232800E76A216AAC
:10467000B8470C23E25E431C06D129681D2947D8A0
:10468000294BCB40DB0743D50023636023692360BC
:10469000D20405D5431C02D12B68002B00D16065E4
:1046A000616B2E60002918D023004433994202D058
:1046B0002800FFF7D1F8002363630EE001232800F0
:1046C000216AB8470200431CC4D12B68002BC1D01B
:1046D0001D2B01D0162B1AD12E6000201DE00E6973
:1046E000002EFAD00F680E60BA1B019200229B07C1
:1046F00000D14A69A260019B002BEEDDA36A320063
:104700001F002800019B216AB847002806DCA28907
:10471000402301201343A3814042FEBD019B361874
:104720001B1A0193E7E7C046010040200B6970B5F2
:1047300005000C00002B02D11D00280070BD0028D0
:1047400004D0036A002B01D1FFF77EFB0C22A35E8D
:10475000002BF1D0626ED20704D49B0502D4A06D69
:10476000FFF70FF828002100FFF75AFF636E0500DE
:10477000DB07E2D4A3899B05DFD4A06DFFF707F820
:10478000DBE70000010010B5002805D1054A064905
:104790000648FFF7EDFC10BD054B1868FFF7C6FF94
:1047A000F9E7C046C40100202D4700087801002029
:1047B0007401002070B50E001D000E23C95E1400A8
:1047C00096B000290CDA80210B00B2891340114207
:1047D00014D18022D20000202B60226016B070BD60
:1047E0006A4600F04BF80028EDDBF022019B120234
:1047F0001340044A9B185A425341EAE700234022DF
:10480000E9E7C04600E0FFFFF7B502258B89060007
:104810000C001D4206D0230047332360236101238F
:104820006361F7BD6A4601ABFFF7C4FF009F30002C
:104830003900FEF7D5F90C22A35E002806D19A05AF
:10484000EFD4032293431D43A581E4E78022134361
:10485000A381019B206020616761002BE1D03000C3
:104860000E23E15E00F01CF80028DAD00323A289B1
:104870009A43023B1343A381D3E70000002370B5A2
:10488000064C0500080011002360FCF78BFC431C5C
:1048900003D12368002B00D02B6070BD8402002060
:1048A000002370B5064C050008002360FCF7F0FCFF
:1048B000431C03D12368002B00D02B6070BDC04681
:1048C000840200200B1F1B68181F002B01DA0B58F5
:1048D000C018704702B4714649084900095C490094
:1048E0008E4402BC7047C04603B47146490840007C
:1048F0004900095E49008E4403BC7047002243080A
:104900008B4274D303098B425FD3030A8B4244D397
:10491000030B8B4228D3030C8B420DD3FF220902D9
:1049200012BA030C8B4202D31212090265D0030B98
:104930008B4219D300E0090AC30B8B4201D3CB038E
:10494000C01A5241830B8B4201D38B03C01A5241D0
:10495000430B8B4201D34B03C01A5241030B8B42D2
:1049600001D30B03C01A5241C30A8B4201D3CB02BD
:10497000C01A5241830A8B4201D38B02C01A5241A2
:10498000430A8B4201D34B02C01A5241030A8B42A5
:1049900001D30B02C01A5241CDD2C3098B4201D3BD
:1049A000CB01C01A524183098B4201D38B01C01A3B
:1049B000524143098B4201D34B01C01A52410309B2
:1049C0008B4201D30B01C01A5241C3088B4201D361
:1049D000CB00C01A524183088B4201D38B00C01A0E
:1049E000524143088B4201D34B00C01A5241411A35
:1049F00000D20146524110467047FFE701B5002042
:104A0000FCF7DCFD02BDC0460029F7D076E7704711
:104A10008446100062468C461900634600E0C0469A
:104A20001FB501F013F8002801D40021C8421FBDB2
:104A300010B500F057FF4042013010BD10B501F035
:104A400005F8002801DB002010BD012010BDC04684
:104A500010B500F0FBFF002801DD002010BD012093
:104A600010BDC04610B500F087FF002801DC002013
:104A700010BD012010BDC04610B500F07DFF00281C
:104A800001DA002010BD012010BDC046F0B5474638
:104A9000CE4680B583B0009001910E034D00019980
:104AA0005F00CC0F710A009E6D0D760F0E430099CA
:104AB00000920193C8001903019B7F0DDB0F9C46F8
:104AC0004B0A0099490F1943009BDB009846EB1BEA
:104AD000644565D0002B14DD002F00D0AEE00F0040
:104AE0004246174300D14DE15A1E012B00D1C9E2C5
:104AF000AF4FBB4200D121E2382A00DD58E213005B
:104B000061E1002B00D1A9E07B1B002D00D0D7E193
:104B10003400044300D18AE25C1E012B00D125E35E
:104B2000A34DAB4200D1CFE2382C00DC7FE34246FC
:104B3000013A9146904592418E1864461D0032021A
:104B400061D501235B4299469A4E300001F05AFF2D
:104B50000300083B484620210700CA1AD7409E4060
:104B600098403A00814632430600AB4200DADDE16C
:104B7000581B33000130091A8B40C6405D1EAB4103
:104B800017008F4033431F43C2403B0016001343BE
:104B900000D117E27B0700D05FE1A446380082E035
:104BA000002B00DCCCE0002F00D08AE00F00424652
:104BB000174300D1E6E05F1E012B00D146E27C4A9C
:104BC000934200D1BAE1382F00DCE0E2421C91466A
:104BD000802212041D00164215D01600744B0135B8
:104BE0009D421DD0744A012116404A465308114087
:104BF000F7070B431F4376085B0709D00F23B9461D
:104C00003B40042B04D04B461F1D4F459B41F61AD9
:104C1000330200D487E0664A0135954200D085E032
:104C20002B00002600271B053343E40723433800ED
:104C3000190003B0C0BCB946B046F0BD5C4FBD42E0
:104C400000D12EE2382B00DCBAE0431E98428041AE
:104C500036189946330200D573E7D4E7574F6B1CDB
:104C60003B4200D04EE133000F004246034317435E
:104C7000002D00D0E0E1002B00D119E2002F00D17F
:104C80001CE2821A9042AD41731A5B191D0200D4D6
:104C9000E3E24346181A8045924107008E1BB6187E
:104CA000374300D1F1E2644607000123310080461A
:104CB00032023DD443464F07DA0817430023CD089C
:104CC000F9E03B4FBD4200D138E1382B00DD53E124
:104CD00080273F0439431F2B00DD02E22027FA1A08
:104CE0000F00944697404246DA401743B946624661
:104CF000474697403A00D940571EBA414F4676186A
:104D00003A431318834280419946361A330200D53C
:104D100064E74A46530700D1BBE20F231340042B3C
:104D200000D070E74F462B00F8082CE06B055B0DB8
:104D3000214AFF081640720776021743360B72E7C6
:104D4000002B00D194E07B1B002D00D01DE135002D
:104D5000054300D14EE25D1E012B00D13BE2144A17
:104D6000934200D1D0E1382D00DC8CE24246013282
:104D70009146802212041D001600114200D02DE73A
:104D80000E0040E7C00872071043094AF508934235
:104D900000D08BE107002F4307D0802636032E4337
:104DA00036030700024B360B3DE70026004B3AE77F
:104DB000FF070000FFFF7F00FFFF7FFFFE070000EF
:104DC00080273F0439431F2B00DDBCE02027FA1A5F
:104DD0000F00974094463A004746DF403A439146D9
:104DE0004746624697403A00D940571EBA414F465F
:104DF000761A3A43831A984280419946361833020C
:104E000087D57602760A002E00D09EE6484601F04D
:104E1000F9FD030018331F2B00DC9BE64A460838D7
:104E200082409D4200DDA1E05B1B581C1F2800DC76
:104E30000FE217001F3BDF40202805D040231B1A3C
:104E40009A40531E9A411743002F6CD00723190034
:104E5000B84639403B4200D12CE70F233B40042B9E
:104E600000D03BE10025033B320200D560E75AE762
:104E7000C84F6B1C3B4200D0B3E033000343002D0E
:104E800000D055E10F0042461743002B00D1C9E185
:104E9000002F00D112E18218824280417618361A22
:104EA000330200D5E0E1170037433CD00023D2089D
:104EB00077071743F5082E035B05360B5B0DB2E64B
:104EC000B54CA74200D1FFE0382B7EDC80242404BF
:104ED00026431F2B00DD1DE120253400ED1A0200C2
:104EE000A840AC40DA40451EA841DE4014432043B0
:104EF000891B43461B1A98459241994664463D00DA
:104F00008E187CE74346C71AB946B842BF41731AA8
:104F10007F42DB1B1F0200D580E04F461E001F436F
:104F200000D070E70024002300267CE69B4EED1A9B
:104F300016400200430700D0EFE6F3E67207C00810
:104F40001043F50826E71F000A00203FFA40944668
:104F5000202B05D04027FB1A994043460B43984627
:104F60004246531E9A4163461A4343E7EB1A8B4D60
:104F700015406F07ED089EE7431C994680231B04EC
:104F80001E4200D13FE61E0028E6834DAF4200D10D
:104F9000BAE0382B00DC03E1434601339946802315
:104FA0001B043D001E00194200D017E60E002AE641
:104FB000421E90428041361891461D00320200D5B3
:104FC000BFE520E6002700262DE64346013B984535
:104FD00092418E18994664463D00330200D5B0E5F3
:104FE00011E66D4DAB4200D11BE64246821882426B
:104FF00080417118091AC8075208104381464E08AB
:10500000520700D148E10F221D000240042A00D0BF
:10501000F9E5C208770717430D094CE743461B1A09
:10502000984592418E1B99466446B618EBE6424677
:1050300064460E00D008A6E6002B00D0DEE0002F6C
:1050400042D180260024544B3603ECE5831883427A
:10505000804175182D1A2A0200D4C5E04F4A5B081A
:105060001540EA071A4369085B0700D119E10F23CD
:105070001340042B00D100E1171D9742B6410225D1
:105080008E1B50E64346C21A90428041761A36186B
:105090009146330220D4D30877071F43F508012334
:1050A00009E7C00873071843F50873E6070002E72D
:1050B000002F00D136E764460E004046C00877074F
:1050C00000230743F508F6E643464807DA08644636
:1050D0001043CD085EE66446012592E6B9460025F8
:1050E00091E51F000A00203FFA409446202B05D08E
:1050F0004027FB1A994043460B4398464246531EAD
:105100009A4163461A43FCE543464807DA081043D0
:10511000CD083FE61C003500203CE540202B03D0A5
:105120004024E31A9E403043431E98412843E0E662
:10513000002BE9D07307C008424618430B00F5085E
:10514000134300D126E680231B031D4206D0CE0860
:105150001E4203D13500D00849070843430FC00061
:10516000ED00C0085B071843ED0813E643461B1A21
:10517000984592418E1BB618994619003302AAD45D
:10518000CB0877071F4364460123F50893E63B00ED
:10519000A1E5C046FE070000FF070000FFFF7FFFFC
:1051A00080252D042E431F2B43DC2025EA1A3500D1
:1051B000944695400200DA40154362469040DE4036
:1051C000421E9041891928434044404592418146FE
:1051D0003D008E1A9AE503004344434592417518F9
:1051E000AD1A2A0200D539E76F07DB081F43ED0827
:1051F000012360E642460E00D008C4E5C0087307EC
:105200001843F508002F00D1C4E580231B031D427D
:10521000A4D0CE081E42A1D1D0084907644635006B
:1052200008439BE7002F00D044E50026FBE4230061
:105230004FE61D003200203DEA409446202B03D06B
:105240004025EB1A9E403043431E98416346184365
:10525000BAE720210023091A92E4170010001E006B
:105260001F4300D02AE75DE6114BD2081E407707A6
:10527000760201231743360BD5E4D70849070223EA
:105280000F432D0917E62B008DE764460023002607
:10529000C9E42B00D00876E57707C20817430D094B
:1052A00009E6D208490711430F0002232D0902E63F
:1052B000FFFF7FFFF0B54546DE4657464E460400E9
:1052C000E0B50D0089B0009401951F00019B160008
:1052D0001B03190B019A019BD20F5B0080460C0047
:1052E00093465B0D00D1C1E08E4A934234D0009CBE
:1052F000019DC900620F0A43802109041143E200A5
:105300009046894A00249B189A46002303910093F3
:105310003B03190B7A0030008946520DFD0F002A1D
:1053200000D17FE07F4B9A426ED0C900730F0B43D0
:1053300080210904194389467B49F30052185146DC
:105340008A1A924600215E466E400F2C00D9FBE07F
:10535000764AA400125997460A0000990A4303921C
:1053600000D0B7E09A460223904608240093CFE786
:105370002E0000210023002288461B051343F60758
:1053800033434046190009B0F0BCBB46B246A946BB
:10539000A046F0BD039B5D4699464346009902290D
:1053A00000D1F5E1032900D1A1E00129E0D0544664
:1053B0005F4AA4180494002C00DCFAE15A0704D0D8
:1053C0000F221A40042A00D076E22E00DA0849465D
:1053D000CB0107D5574B1940894680215346C90058
:1053E0005B180493544B0499994208DC48464307E0
:1053F0001343984642024B05120B5B0DBDE700219B
:1054000000228846474BB8E752460B004B493343CE
:1054100052189246002B58D1022214430022022136
:10542000914690E70B00334349D0002900D19EE11B
:10543000080001F0E7FA0B235B429C46020084441B
:1054400011004846083988401D23814660461B1AD2
:105450003000D840030048460343994633008B4050
:10546000374952445218924600216CE70A000099CD
:105470000A4303921CD0002C00D168E1200001F007
:10548000C1FA02000B381D231B1A009811002500D9
:10549000D84008398D4003002B430393009B8B4079
:1054A0009846284B00249B1A9A46002300932FE726
:1054B000002398469A4601330424009328E70122EA
:1054C00014430022012191463DE7032303211C439D
:1054D000330038E79A460323039400930C2417E71C
:1054E00000238022984600260E4B120345E78022B7
:1054F000494612030A43120398462E00094B120B29
:105500003BE7802203991203114202D0494611421F
:10551000F0D08022039B12031A4312035E46014B14
:10552000120B2AE7FF07000001FCFFFF746E000862
:10553000FF030000FFFFFFFEFE07000001F8FFFF72
:10554000F30300000DFCFFFF0399894500D2F5E04D
:1055500000D1F0E05246013A92460022444690467D
:1055600003984A461F0E120217431B0203933B0483
:10557000110C1B0C00938B46FFF746FA009A0B04A4
:105580004243210C050019438A4207D9C919013D3C
:105590008F4203D88A4201D9851EC919881A5946F3
:1055A000FFF732FA009A240442430904240C030052
:1055B0000C43A24204D9E419013BA74200D8F2E00F
:1055C0000399A01A2D040C0C09041D43090C2A0C84
:1055D0002B04A9460D001B0C5D4307916343514307
:1055E000069462435B182C0CE318994202D980217F
:1055F00049025218190C2D041B042D0C8A185D1930
:10560000904200D284E000D17FE043465D1BAB4274
:105610009B415446801AC018AD4BE418049487424D
:1056200000D1FBE05946FFF7EFF90200009B05901F
:105630005A430B04290C19438A4209D9431EC9193C
:1056400005938F4204D88A4202D9831E0593C91953
:10565000881A5946FFF7D8F90A04944603002A0429
:1056600065460099120C59432A43914207D9D21931
:10567000013B974203D8914201D9831ED219521A95
:1056800005990798090405000B43190C8C46190469
:10569000090C4D4388466146AB466546484306992A
:1056A0004D43AC46454669435D4609182D0C4919E2
:1056B000884202D98020400284445D46080C2D04B3
:1056C00009042D0C60444D19824211D30DD00122E2
:1056D0001343804A92456DDB1A1D9A429B41D208C2
:1056E0005B42CC469C44E14671E6002D00D193E03C
:1056F000591EBA188C46BA4200D285E0824200D2C6
:10570000C4E000D1D1E00B00E1E7A84500D37CE77D
:105710004B46013B04934346039C1B199846A34206
:105720009B41FB1AC018874238D282427DD87AD07A
:10573000049B994669E7434500D90BE74146039A24
:10574000D40750084A081443CA07904609E701F0F5
:1057500059F902000300153020321C2800DC92E6C3
:105760000099083B994000230391984699E601F07F
:1057700049F915239C4684440200634620321C2BC1
:1057800000DC5DE63100083881400023894667E689
:1057900000212E00002288464F4BEEE58742C7D1FC
:1057A0004445C5D8C1E7A24200D809E7831EE419E1
:1057B00006E72E002200373200DADAE522001E3238
:1057C0003FDB4D46012250464449121B40181C0045
:1057D000290083408140D440581E8341D540214355
:1057E0000B432A00590708D00F211940042904D07F
:1057F000191D99429B41EA1A0B00110263D5002141
:10580000012300228846B8E50B00824200D05EE703
:10581000039A954200D05AE73500CBE5002C41DDD4
:10582000002201235DE7454582D94B46023B99465C
:10583000434603995B1898468B429B41FB1AC0185C
:10584000E3E648461F2201005242121BD1401F349A
:1058500004D05246224C1219904003435A1E9341E1
:1058600007200B43010000221940184209D00F21E4
:10587000194004291ED0181D98428941030049424D
:105880004907DB080B439846002376E50399023B62
:1058900049008C4603998C458941791A5218614612
:1058A0000391B2E701235B4284E70399A942EDD358
:1058B0006346ADE70021E4E71A1D9A429B412E00A2
:1058C0005B42D2080DE751075202120BD9E7C046DE
:1058D000FF03000002FCFFFFFF0700001E040000A2
:1058E0003E040000F0B54546DE4657464E460C03E2
:1058F000E0B51F00230B4C009846630D9C463C030B
:10590000CB0F1C4D16009B4683B0220BFB0F7C0077
:10591000640D0193AC450FD0AC420BD0794001250A
:10592000490017D0280003B0F0BCBB46B246A946D8
:10593000A046F0BD0125F5E701256445F2D14346B7
:10594000134333430343EDD15B46019A9D1A6B1E0B
:105950009D41E7E78642E5D1019A934507D08C4502
:10596000E0D142463243531E9A411500DAE7002542
:10597000D8E7C046FF070000F0B557464E464546FB
:10598000DE46E0B50D000903090BDF0F8C46B94672
:10599000E90F2D4F0400834688466E001903580016
:1059A0009246760D090B400DBE421CD0B8420DD078
:1059B000002E2AD166463443002823D10A4334D02E
:1059C000002C3ED14B465800013815E0114335D12B
:1059D000002E02D163462343F4D0C84508D1434684
:1059E0005800013808E06746274327D1B0421FD04E
:1059F000434601205B421843F0BCBB46B246A94671
:105A0000A046F0BD002CDDD0E7E70028F0D0C84567
:105A1000EED18642ECDCE2DB8C45E9D8DFD1DA4519
:105A2000E6D30020DA45E7D9D9E7002CE4D0DFE758
:105A3000114303D1C845DBD10800DDE70220404215
:105A4000DAE7C845E8D0D3E7FF070000F0B55746CE
:105A50004E464546DE46E0B50D000903090BDF0F53
:105A60008C46B946E90F2D4F0400834688466E00E8
:105A7000190358009246760D090B400DBE421DD009
:105A8000B8420DD0002E27D166463443002831D1CC
:105A90000A4332D0002C3DD14B465800013815E066
:105AA000114312D1002E02D163462343F4D0C845DE
:105AB0001CD0434601205B42184307E0674627435A
:105AC00003D1B042F5D111431AD00220F0BCBB463D
:105AD000B246A946A046F0BD0028EAD0C845E8D1A4
