:100000000C9434000C9451000C9451000C94510049
:100010000C9451000C9451000C9451000C9451001C
:100020000C9451000C9451000C9451000C9451000C
:100030000C9451000C9451000C9451000C945100FC
:100040000C9451000C9451000C9451000C945100EC
:100050000C9451000C9451000C9451000C945100DC
:100060000C9451000C94510011241FBECFEFD8E026
:10007000DEBFCDBF11E0A0E0B1E0E6EEF9E002C0E6
:1000800005900D92A238B107D9F721E0A2E8B1E0BE
:1000900001C01D92A838B207E1F70E9496010C94A6
:1000A000F1040C940000209A8AB1886F8AB90895EF
:1000B00080E091E08093840190938501519A50985B
:1000C0001092C50080E18093C400E1ECF0E08081F3
:1000D0008860808380818061808386E08093C20015
:1000E000E0EC80818260808308959091C00095FF4C
:1000F000FCCF8093C6000895CF93DF930F92CDB7C6
:10010000DEB789838A3019F48DE00E9475008981F9
:100110000E94750080E090E00F90DF91CF910895EC
:100120008091C00087FFFCCF8091C6000895809128
:10013000C00087FB882780F90895CF93DF93EC01F7
:100140008881811103C0DF91CF91089521960E948B
:100150007500F6CFEF92FF920F931F93CF93DF932B
:1001600000D00F92CDB7DEB78C011A821B8261508E
:1001700071097B010E94900089830E94750099811A
:100180009A3071F4F80110828A819B810F900F9050
:100190000F90DF91CF911F910F91FF90EF900895F5
:1001A000F981FD3079F3F801898181938F01EA812A
:1001B000FB813196EA83FB83EE16FF06D9F6E2CF88
:1001C0005C9A85ED8A95F1F700005C980895CF93CD
:1001D000C82F87FF1FC0289AC6FF1EC05F9AC5FFA1
:1001E0001DC05E9AC4FF1CC05D9A0E94E00085EDB0
:1001F0008A95F1F70000C3FF15C0289AC2FF14C00A
:100200005F9AC1FF13C05E9AC0FF12C05D9ACF9182
:100210000C94E0002898E0CF5F98E1CF5E98E2CFA1
:100220005D98E3CF2898EACF5F98EBCF5E98ECCF4C
:100230005D98EDCF5B9A0E94E7008FE39FE1019705
:10024000F1F700C0000008955B980E94E7008FE17D
:100250009EE40197F1F700C0000008955C982FEF2D
:1002600089EF90E0215080409040E1F700C000000D
:1002700083E30E94240183E30E94240182E30E941D
:10028000240188E20E9424018CE00E94240181E084
:100290000E9424012FEF89EF90E021508040904090
:1002A000E1F700C0000008950F931F93CF93DF93F1
:1002B00000D000D0CDB7DEB78C839A83498380EC21
:1002C000623009F080E80E9424018FE19EE40197EA
:1002D000F1F700C000000C811A811A821B82F8011C
:1002E000808181110CC0F981F1111BC00F900F901A
:1002F0000F900F90DF91CF911F910F9108950F5F95
:100300001F4F0E941A01EA81FB813196EA83FB8329
:10031000E6CF80E20E941A018A819B8101968A833E
:100320009B83EA81FB817097A4F3E0CFCDB7DEB762
:1003300061970FB6F894DEBF0FBECDBF0E94580084
:100340000E9453000E942E012FEF89E698E1215070
:1003500080409040E1F700C000008EE091E00E94F4
:10036000EC0141E061E089E291E00E94540141E04A
:1003700062E089E391E00E94540107E411E01F93D9
:100380000F930E94D60160E170E0CE0101960E94B9
:10039000AA008FE791E00E94EC0141E062E0CE010B
:1003A00001960E9454010F900F90E9CFA0E0B0E0B9
:1003B000ECEDF1E00C94CA04AE014B5F5F4FFA0123
:1003C00061917191AF0180918401909185010E94AA
:1003D0001802E2E00C94E6040F931F93CF93DF938F
:1003E000E0918401F09185012381EC0100E010E0AF
:1003F00021FD0EC00FEF1FEFC801DF91CF911F91BC
:100400000F91089521960995892B11F00FEF1FEF99
:1004100088816091840170918501DB011896ED91CE
:10042000FD918111EFCF8AE00995892B29F3E2CF65
:10043000ACE0B0E0EEE1F2E00C94BD045C016B01D5
:100440007A01FC0116821782838181FFD3C12AE0E1
:10045000522EF5012381F60123FD859123FF819121
:100460006F01811509F42CC1853239F423FD959172
:1004700023FF91916F01953229F4B50190E00E941C
:100480001304E7CF30E0712C00E010E0103210F5DB
:100490009B32C9F050F49032B9F09332C9F09E32D9
:1004A00061F516FD0DC1106405C09D3279F09033E1
:1004B00099F41160F60123FD959123FF91916F014D
:1004C0009111E4CF23C012601460F4CF1860F2CF12
:1004D0001061F0CF17FD1AC080ED890F8A30F8F651
:1004E00016FF05C0759C800D1124782EE3CF059D65
:1004F000800D1124082F1062DDCF9C3611F4106896
:10050000D9CF9C3409F440C09836A1F2892F8F7D51
:1005100085548330D8F1933609F45FC0933709F4DA
:100520006AC0933509F476C0943619F0993609F00B
:10053000A2C0F70117FF98C06191719181919191CB
:100540007F011F7697FF03C00E94B20410682AE063
:1005500030E04E014FEF841A940AA4010E94540423
:10056000682E681816FFD2C0812F8E7F671408F09E
:10057000CCC014FF1DC112FD11C11E7E972C812F0E
:10058000867809F4CEC00FC131E094CF311509F15E
:10059000F8E0EF0EF11C8FE3898391E0692E712C56
:1005A0004E018FEF881A980A1F7713FD04C060165A
:1005B000710408F43FC06114710409F042C00115D0
:1005C00009F447CFB50180E290E00E941304015086
:1005D000F6CF44E0E40EF11CDECFF7018081898381
:1005E000F2E0EF0EF11C81E0682E712C4E014FEF0E
:1005F000841A940AD9CFF701819091907F01672DD9
:1006000070E016FD02C06FEF7FEFC4010E94080486
:100610003C01CACFF701819091907F01672D70E076
:1006200016FD02C06FEF7FEFC4010E94FD033C0185
:100630001068BBCFB50180E290E00E941304015026
:10064000B6CFF40117FD859117FF81914F01B501D8
:1006500090E00E94130481E0011101C080E0081BBA
:10066000F1E06F1A7108A7CF61917191872F880F00
:10067000880B982F65CF9537C9F41F7E1C872AE019
:1006800030E0FC85F7FF3BC0F701619171918191EA
:1006900091917F014E014FEF841A940AA4010E94A8
:1006A0005404682E68181C851F775CCF812F897FC2
:1006B0008C87903799F058F49835B9F09F36E1F06F
:1006C000F501868197812C96EFE00C94D904983738
:1006D000B9F714FD06C020E130E0D3CF9C859061CE
:1006E0009C87EC85E460EC87F6CF14FF02C01660AF
:1006F0001C8720E132E0C5CF28E030E0C2CFF7010F
:100700006191719180E090E0C4CF182F962C14FF76
:1007100036CFFE01E60DF11D8081803309F041C026
:10072000197E13FD0EC010FF4FC0762C901618F4E2
:10073000700E7918902E802F8919091508F480E021
:10074000980E901608F042C0091914FF41C0B50177
:1007500080E390E00E94130412FF09C088E590E056
:1007600011FD02C088E790E0B5010E9413046714F0
:10077000D0F14E018FEF881A980A6A94FE013296E2
:10078000E60DF11D3F01F30182913F01B50190E0BB
:100790000E94130468147904B1F711CF972C182F15
:1007A000B8CF12FD02C09394BCCF93949394B9CF69
:1007B000972C182FE4CEB50180E290E00E9413043C
:1007C00083948016C0F3B7CF892CFBCF00E0BDCF58
:1007D000812F867861F280E211FD8BE217FD8DE2B8
:1007E000B50190E0C2CFB50180E390E00E94130410
:1007F0007A94BDCF8FEF9FEF66CFFC0105906150DB
:1008000070400110D8F7809590958E0F9F1F089526
:10081000FC016150704001900110D8F780959095CF
:100820008E0F9F1F0895A3E0B0E0E9E1F4E00C947F
:10083000C904182F99836A837B83DB0113968C91FB
:1008400081FD09C01FEFBFEFB983812F99812396E6
:10085000E3E00C94E50482FF1BC0EA81FB81268162
:100860003781848195812817390754F40190F081EC
:10087000E02DCF010196AA81BB818D939D931083BA
:10088000EA81FB8186819781019686839783DDCFFC
:10089000AA81BB811896ED91FD911A97BD01812F18
:1008A0000995892B69F3CECFFA01AA27283051F197
:1008B000203181F1E8946F936E7F6E5F7F4F8F4F91
:1008C0009F4FAF4FB1E03ED0B4E03CD0670F781FF0
:1008D000891F9A1FA11D680F791F8A1F911DA11DD5
:1008E0006A0F711D811D911DA11D20D009F468940E
:1008F0003F912AE0269F11243019305D3193DEF6B6
:10090000CF010895462F4770405D4193B3E00FD06B
:10091000C9F7F6CF462F4F70405D4A3318F0495D56
:1009200031FD4052419302D0A9F7EACFB4E0A69539
:100930009795879577956795BA95C9F7009761055B
:10094000710508959B01AC010A2E069457954795B1
:1009500037952795BA95C9F7620F731F841F951FA6
:10096000A01D089590958095709561957F4F8F4F4C
:100970009F4F08952F923F924F925F926F927F9276
:100980008F929F92AF92BF92CF92DF92EF92FF929F
:100990000F931F93CF93DF93CDB7DEB7CA1BDB0B4B
:1009A0000FB6F894DEBF0FBECDBF09942A883988F0
:1009B00048885F846E847D848C849B84AA84B984F7
:1009C000C884DF80EE80FD800C811B81AA81B98103
:1009D000CE0FD11D0FB6F894DEBF0FBECDBFED0117
:0609E0000895F894FFCF1A
:1009E60000000002000000007C00000000004154EE
:1009F6004D6567613332385020342D626974204C5E
:100A0600434420746573742E004C434420342D6295
:100A1600697420746573743A0048656C6C6F2C2099
:100A2600576F726C64210054797065207768617421
:100A360020796F752077616E7420746F20646973F6
:100A4600706C617920696E206C696E652032202891
:100A560031362063686172206D6178293A20000D75
:020A660000008E
:00000001FF
